{
  "transactions": [
    {
      "hash": "0xbb5b726f907d31809df35a634d327cdf30c3352078aafbd15498c89e08460922",
      "transactionType": "CALL",
      "contractName": null,
      "contractAddress": "0x50139d921e6746c628db7abec73060e8da70afad",
      "function": "registerVoter(string)",
      "arguments": [
        "ENG1905130"
      ],
      "transaction": {
        "from": "0xddb342ecc94236c29a5307d3757d0724d759453c",
        "to": "0x50139d921e6746c628db7abec73060e8da70afad",
        "gas": "0x17532",
        "value": "0x0",
        "input": "0x6428a4860000000000000000000000000000000000000000000000000000000000000020000000000000000000000000000000000000000000000000000000000000000a454e473139303531333000000000000000000000000000000000000000000000",
        "nonce": "0x20",
        "chainId": "0x14a34"
      },
      "additionalContracts": [],
      "isFixedGasLimit": false
    }
  ],
  "receipts": [
    {
      "status": "0x1",
      "cumulativeGasUsed": "0x810ce5",
      "logs": [
        {
          "address": "0x50139d921e6746c628db7abec73060e8da70afad",
          "topics": [
            "0xffeb7702be7dcd8fee170d954b70afb9a7c78f7f5cff232d037e7b9d8243356a",
            "0x000000000000000000000000ddb342ecc94236c29a5307d3757d0724d759453c"
          ],
          "data": "0x0000000000000000000000000000000000000000000000000000000000000020000000000000000000000000000000000000000000000000000000000000000a454e473139303531333000000000000000000000000000000000000000000000",
          "blockHash": "0xd8632e6721c485cbea12d7fd7d280dacd1d279e24d1027fc53d671249b7e509b",
          "blockNumber": "0x14b1737",
          "transactionHash": "0xbb5b726f907d31809df35a634d327cdf30c3352078aafbd15498c89e08460922",
          "transactionIndex": "0x22",
          "logIndex": "0x49",
          "removed": false
        }
      ],
      "logsBloom": "0x00000000000000000000200000000000000000000000000000000000000000000000000000000000000000000000000000000000000000000000000000000000000000000000000000000000000000000000000000000200000000000080000400000000000000000000000000000000400000000000000000000000400000001000000000000000000000000000000000000000000000000000000000000000000000000000000000000000000000000000000000100000000000000000000000000000000000000000000000000000000000000000000000000002000000000000000000000000000000000000000000000000000000000000000000000000",
      "type": "0x2",
      "transactionHash": "0xbb5b726f907d31809df35a634d327cdf30c3352078aafbd15498c89e08460922",
      "transactionIndex": "0x22",
      "blockHash": "0xd8632e6721c485cbea12d7fd7d280dacd1d279e24d1027fc53d671249b7e509b",
      "blockNumber": "0x14b1737",
      "gasUsed": "0x10e30",
      "effectiveGasPrice": "0xf0973",
      "from": "0xddb342ecc94236c29a5307d3757d0724d759453c",
      "to": "0x50139d921e6746c628db7abec73060e8da70afad",
      "contractAddress": null,
      "l1BaseFeeScalar": "0x44d",
      "l1BlobBaseFee": "0x1",
      "l1BlobBaseFeeScalar": "0xa118b",
      "l1Fee": "0x135318218",
      "l1GasPrice": "0xaf84bc56",
      "l1GasUsed": "0x640"
    }
  ],
  "libraries": [],
  "pending": [],
  "returns": {},
  "timestamp": 1739165007,
  "chain": 84532,
  "commit": "dd900dd"
}