{
  "transactions": [
    {
      "hash": "0xc03b3a9eadaaae2f655dd27e24c54164397f583d27856ae63df23176c3c0d443",
      "transactionType": "CALL",
      "contractName": "QVContract",
      "contractAddress": "0x786333fFf4535F1169786d42F7e007abFD85Bd20",
      "function": "createVotingSession(string,string,uint256,uint256,uint256)",
      "arguments": [
        "\"Session 1\"",
        "\"Description 1\"",
        "1734484192",
        "1734493192",
        "100"
      ],
      "transaction": {
        "type": "0x02",
        "from": "0xddb342ecc94236c29a5307d3757d0724d759453c",
        "to": "0x786333fff4535f1169786d42f7e007abfd85bd20",
        "gas": "0x379fb",
        "value": "0x0",
        "data": "0xf6e58b9600000000000000000000000000000000000000000000000000000000000000a000000000000000000000000000000000000000000000000000000000000000e000000000000000000000000000000000000000000000000000000000676220e000000000000000000000000000000000000000000000000000000000676244080000000000000000000000000000000000000000000000000000000000000064000000000000000000000000000000000000000000000000000000000000000953657373696f6e20310000000000000000000000000000000000000000000000000000000000000000000000000000000000000000000000000000000000000d4465736372697074696f6e203100000000000000000000000000000000000000",
        "nonce": "0x5",
        "accessList": []
      },
      "additionalContracts": [],
      "isFixedGasLimit": false
    }
  ],
  "receipts": [
    {
      "transactionHash": "0xc03b3a9eadaaae2f655dd27e24c54164397f583d27856ae63df23176c3c0d443",
      "transactionIndex": "0x1",
      "blockHash": "0xbf9eb9e4c58ccc66a895d58171a7b34b7f1d91c0ae4e338eddbba09b45be9dfc",
      "blockNumber": "0x1275f17",
      "from": "0xDdb342ecc94236c29a5307d3757d0724D759453C",
      "to": "0x786333fFf4535F1169786d42F7e007abFD85Bd20",
      "cumulativeGasUsed": "0x32f94",
      "gasUsed": "0x28455",
      "contractAddress": null,
      "logs": [
        {
          "address": "0x786333fFf4535F1169786d42F7e007abFD85Bd20",
          "topics": [
            "0x0f40fee1a48c231d63cdb810402c13105b64f25877e9018ec9c26d862be056cc",
            "0x0000000000000000000000000000000000000000000000000000000000000001"
          ],
          "data": "0x0000000000000000000000000000000000000000000000000000000000000040000000000000000000000000ddb342ecc94236c29a5307d3757d0724d759453c000000000000000000000000000000000000000000000000000000000000000953657373696f6e20310000000000000000000000000000000000000000000000",
          "blockHash": "0xbf9eb9e4c58ccc66a895d58171a7b34b7f1d91c0ae4e338eddbba09b45be9dfc",
          "blockNumber": "0x1275f17",
          "transactionHash": "0xc03b3a9eadaaae2f655dd27e24c54164397f583d27856ae63df23176c3c0d443",
          "transactionIndex": "0x1",
          "logIndex": "0x0",
          "removed": false
        }
      ],
      "status": "0x1",
      "logsBloom": "0x00000000000000000000000000000100000000000000000000000000000000000000000000000000000000000000000000000000000000000000000000040000000000000000000000010000000000000000000000040000000000000000000000000000000000000000000000000000000000000000000000000000000000000000000000000000000000000000000000000000000000000000000000000000000000000000000800000000000000000000000000000000000000000000000000000000000000000000000000000020000000000000000000000000000040000080000000000000000000000000000000800000000000000000000000000000",
      "type": "0x2",
      "effectiveGasPrice": "0xb2d05f1d"
    }
  ],
  "libraries": [],
  "pending": [],
  "returns": {},
  "timestamp": 1734483220,
  "chain": 84532,
  "multi": false,
  "commit": "5922de9"
}