{
  "transactions": [
    {
      "hash": "0xd920b50854f97b8690a70b07a5bdb108d749516ab0502bbbcbfb19d7f8ce7f54",
      "transactionType": "CALL",
      "contractName": null,
      "contractAddress": "0x50139d921e6746c628db7abec73060e8da70afad",
      "function": "joinRoom(uint256,string)",
      "arguments": [
        "1",
        "ENG190"
      ],
      "transaction": {
        "from": "0xadb559583bdb736937228cc3f1453a75262fae18",
        "to": "0x50139d921e6746c628db7abec73060e8da70afad",
        "gas": "0x139b3",
        "value": "0x0",
        "input": "0xb01a5da2000000000000000000000000000000000000000000000000000000000000000100000000000000000000000000000000000000000000000000000000000000400000000000000000000000000000000000000000000000000000000000000006454e473139300000000000000000000000000000000000000000000000000000",
        "nonce": "0x1",
        "chainId": "0x14a34"
      },
      "additionalContracts": [],
      "isFixedGasLimit": false
    }
  ],
  "receipts": [
    {
      "status": "0x1",
      "cumulativeGasUsed": "0x1d3af0d",
      "logs": [
        {
          "address": "0x50139d921e6746c628db7abec73060e8da70afad",
          "topics": [
            "0x502e2255455787d8b761806b0fff3ff391f38f016760e40bcc03691bac106dca",
            "0x0000000000000000000000000000000000000000000000000000000000000001",
            "0x000000000000000000000000adb559583bdb736937228cc3f1453a75262fae18"
          ],
          "data": "0x",
          "blockHash": "0xc8a8bc23d9e493b9d2af9af893fe2e812b90335b5a4080b1d8e971afc7fdd730",
          "blockNumber": "0x14b22e6",
          "transactionHash": "0xd920b50854f97b8690a70b07a5bdb108d749516ab0502bbbcbfb19d7f8ce7f54",
          "transactionIndex": "0x33",
          "logIndex": "0xea",
          "removed": false
        }
      ],
      "logsBloom": "0x00000000000000000000000000000000000000100000000000000000000000000000000000000000000000020000000000000000000000000000000000040000000000400000000000000000000000000000000000040000000000000080000000000000000000000000000000000000000000000000000000020000000000003000000000000000000000000000000000000000000000000000000800000000000000000000000000000000000000000000000000000000000000000000000000000000000000000000000000000000000000000000000000000002000040000000000000000000000000000000000000000000000000000000000000000000",
      "type": "0x2",
      "transactionHash": "0xd920b50854f97b8690a70b07a5bdb108d749516ab0502bbbcbfb19d7f8ce7f54",
      "transactionIndex": "0x33",
      "blockHash": "0xc8a8bc23d9e493b9d2af9af893fe2e812b90335b5a4080b1d8e971afc7fdd730",
      "blockNumber": "0x14b22e6",
      "gasUsed": "0xe31e",
      "effectiveGasPrice": "0xe95b1",
      "from": "0xadb559583bdb736937228cc3f1453a75262fae18",
      "to": "0x50139d921e6746c628db7abec73060e8da70afad",
      "contractAddress": null,
      "l1BaseFeeScalar": "0x44d",
      "l1BlobBaseFee": "0x1",
      "l1BlobBaseFeeScalar": "0xa118b",
      "l1Fee": "0x4426ea03b",
      "l1GasPrice": "0x26b00404e",
      "l1GasUsed": "0x640"
    }
  ],
  "libraries": [],
  "pending": [],
  "returns": {},
  "timestamp": 1739170989,
  "chain": 84532,
  "commit": "dd900dd"
}