{
  "transactions": [
    {
      "hash": "0xbd890163c922b5bdd872679bb57f36e7c719b7b9105a5c2e232b709f58481c39",
      "transactionType": "CALL",
      "contractName": null,
      "contractAddress": "0x50139d921e6746c628db7abec73060e8da70afad",
      "function": "registerVoter(string)",
      "arguments": [
        "ENG1905131"
      ],
      "transaction": {
        "from": "0x02f6302d1b7c94ff01a2b59ebac8d9aa2fc62522",
        "to": "0x50139d921e6746c628db7abec73060e8da70afad",
        "gas": "0x17532",
        "value": "0x0",
        "input": "0x6428a4860000000000000000000000000000000000000000000000000000000000000020000000000000000000000000000000000000000000000000000000000000000a454e473139303531333100000000000000000000000000000000000000000000",
        "nonce": "0x3",
        "chainId": "0x14a34"
      },
      "additionalContracts": [],
      "isFixedGasLimit": false
    }
  ],
  "receipts": [
    {
      "status": "0x1",
      "cumulativeGasUsed": "0x348db7",
      "logs": [
        {
          "address": "0x50139d921e6746c628db7abec73060e8da70afad",
          "topics": [
            "0xffeb7702be7dcd8fee170d954b70afb9a7c78f7f5cff232d037e7b9d8243356a",
            "0x00000000000000000000000002f6302d1b7c94ff01a2b59ebac8d9aa2fc62522"
          ],
          "data": "0x0000000000000000000000000000000000000000000000000000000000000020000000000000000000000000000000000000000000000000000000000000000a454e473139303531333100000000000000000000000000000000000000000000",
          "blockHash": "0x60dfbb2513999e8154ab07d104750bc5d5a410d1c603c7d284c38557f8f308a6",
          "blockNumber": "0x14b17fa",
          "transactionHash": "0xbd890163c922b5bdd872679bb57f36e7c719b7b9105a5c2e232b709f58481c39",
          "transactionIndex": "0x1c",
          "logIndex": "0x4a",
          "removed": false
        }
      ],
      "logsBloom": "0x00000000000000000000200000000000000000000000000000000000000000000000000000000000000000000000000000000000000000000000000000000000000000000000000000000000000000000000000000000200000000000080000000000000000000000000000000000000000000004000000000000000000000001800000000000000000000000004000000000000000000000000000000000000000000000000000000000000000000000000000000100000000000000000000000000000000000000000000000000000000000000000000000000002000000000000000000000000000000000000000000000000000000000000000000000000",
      "type": "0x2",
      "transactionHash": "0xbd890163c922b5bdd872679bb57f36e7c719b7b9105a5c2e232b709f58481c39",
      "transactionIndex": "0x1c",
      "blockHash": "0x60dfbb2513999e8154ab07d104750bc5d5a410d1c603c7d284c38557f8f308a6",
      "blockNumber": "0x14b17fa",
      "gasUsed": "0x10e30",
      "effectiveGasPrice": "0xc8b8e",
      "from": "0x02f6302d1b7c94ff01a2b59ebac8d9aa2fc62522",
      "to": "0x50139d921e6746c628db7abec73060e8da70afad",
      "contractAddress": null,
      "l1BaseFeeScalar": "0x44d",
      "l1BlobBaseFee": "0x1",
      "l1BlobBaseFeeScalar": "0xa118b",
      "l1Fee": "0xff9fddd2",
      "l1GasPrice": "0x911bf88b",
      "l1GasUsed": "0x640"
    }
  ],
  "libraries": [],
  "pending": [],
  "returns": {},
  "timestamp": 1739165396,
  "chain": 84532,
  "commit": "dd900dd"
}