{
  "transactions": [
    {
      "hash": "0x891b45211fe62376b875015b3353da4765efddc41000d71cae43e2a8ca094c29",
      "transactionType": "CALL",
      "contractName": "QVContract",
      "contractAddress": "0x786333fFf4535F1169786d42F7e007abFD85Bd20",
      "function": "createVotingSession(string,string,uint256,uint256,uint256)",
      "arguments": [
        "\"Session 1\"",
        "\"Description 1\"",
        "1734483218",
        "1734484218",
        "100"
      ],
      "transaction": {
        "type": "0x02",
        "from": "0xddb342ecc94236c29a5307d3757d0724d759453c",
        "to": "0x786333fff4535f1169786d42f7e007abfd85bd20",
        "gas": "0x41006",
        "value": "0x0",
        "data": "0xf6e58b9600000000000000000000000000000000000000000000000000000000000000a000000000000000000000000000000000000000000000000000000000000000e00000000000000000000000000000000000000000000000000000000067621d1200000000000000000000000000000000000000000000000000000000676220fa0000000000000000000000000000000000000000000000000000000000000064000000000000000000000000000000000000000000000000000000000000000953657373696f6e20310000000000000000000000000000000000000000000000000000000000000000000000000000000000000000000000000000000000000d4465736372697074696f6e203100000000000000000000000000000000000000",
        "nonce": "0x3",
        "accessList": []
      },
      "additionalContracts": [],
      "isFixedGasLimit": false
    }
  ],
  "receipts": [
    {
      "transactionHash": "0x891b45211fe62376b875015b3353da4765efddc41000d71cae43e2a8ca094c29",
      "transactionIndex": "0x1",
      "blockHash": "0x8ec16f6ad8b317a4b3a4df8c9f65e9de066339b357beb0528637949f41e97e3e",
      "blockNumber": "0x1275d33",
      "from": "0xDdb342ecc94236c29a5307d3757d0724D759453C",
      "to": "0x786333fFf4535F1169786d42F7e007abFD85Bd20",
      "cumulativeGasUsed": "0x37260",
      "gasUsed": "0x2c721",
      "contractAddress": null,
      "logs": [
        {
          "address": "0x786333fFf4535F1169786d42F7e007abFD85Bd20",
          "topics": [
            "0x0f40fee1a48c231d63cdb810402c13105b64f25877e9018ec9c26d862be056cc",
            "0x0000000000000000000000000000000000000000000000000000000000000000"
          ],
          "data": "0x0000000000000000000000000000000000000000000000000000000000000040000000000000000000000000ddb342ecc94236c29a5307d3757d0724d759453c000000000000000000000000000000000000000000000000000000000000000953657373696f6e20310000000000000000000000000000000000000000000000",
          "blockHash": "0x8ec16f6ad8b317a4b3a4df8c9f65e9de066339b357beb0528637949f41e97e3e",
          "blockNumber": "0x1275d33",
          "transactionHash": "0x891b45211fe62376b875015b3353da4765efddc41000d71cae43e2a8ca094c29",
          "transactionIndex": "0x1",
          "logIndex": "0x0",
          "removed": false
        }
      ],
      "status": "0x1",
      "logsBloom": "0x00000000000000000000000000000100000000000000000000000000000000000000000000000000000000000000000000000000000000000000000000000000000000000000000000010000000000000000000000000000000000000000000000000000020000000000000000000800000000000000000000000000000000000000000000000000000000000000000000000000000000000000000000000000000000000000000800000000000000000000000000000000000000000000000000000000000000000000000000000020000000000000000000000000000020000080000000000000000000000000000000800000000000000000000000000000",
      "type": "0x2",
      "effectiveGasPrice": "0xb2d05f27"
    }
  ],
  "libraries": [],
  "pending": [],
  "returns": {},
  "timestamp": 1734482252,
  "chain": 84532,
  "multi": false,
  "commit": "5922de9"
}