{
  "transactions": [
    {
      "hash": "0x4c5b41a8ef4eb07937e189e2d218927abaa106de1e1fb3e84a4bca5709f80846",
      "transactionType": "CALL",
      "contractName": null,
      "contractAddress": "0xd9c45ad03c29d9b9773bf40db197780f7db4ef0d",
      "function": "joinRoom(uint256,string)",
      "arguments": [
        "1",
        "ENG190"
      ],
      "transaction": {
        "from": "0xddb342ecc94236c29a5307d3757d0724d759453c",
        "to": "0xd9c45ad03c29d9b9773bf40db197780f7db4ef0d",
        "gas": "0xb2a2",
        "value": "0x0",
        "input": "0xb01a5da2000000000000000000000000000000000000000000000000000000000000000100000000000000000000000000000000000000000000000000000000000000400000000000000000000000000000000000000000000000000000000000000006454e473139300000000000000000000000000000000000000000000000000000",
        "nonce": "0x14",
        "chainId": "0x14a34"
      },
      "additionalContracts": [],
      "isFixedGasLimit": false
    }
  ],
  "receipts": [
    {
      "status": "0x1",
      "cumulativeGasUsed": "0x8062af",
      "logs": [
        {
          "address": "0xd9c45ad03c29d9b9773bf40db197780f7db4ef0d",
          "topics": [
            "0x502e2255455787d8b761806b0fff3ff391f38f016760e40bcc03691bac106dca",
            "0x0000000000000000000000000000000000000000000000000000000000000001",
            "0x000000000000000000000000ddb342ecc94236c29a5307d3757d0724d759453c"
          ],
          "data": "0x",
          "blockHash": "0x0f0333615eb0f7e98f1c0599bee75034934ea60f09ea00f5611b82e30cd5790b",
          "blockNumber": "0x14a56bf",
          "transactionHash": "0x4c5b41a8ef4eb07937e189e2d218927abaa106de1e1fb3e84a4bca5709f80846",
          "transactionIndex": "0x46",
          "logIndex": "0xb7",
          "removed": false
        }
      ],
      "logsBloom": "0x00000000000000000000000000000000000000000000000000000000000000000000000000000000000000020000000000000000000000000000000000040000000000400000000000000000000000000000000000040000000000000000000400000000000000000000000000000000400000000000000000000000400000000000000000000000000000000000000000000000000000000000000800800000000000000010000000000000000000000000000000000000000000000000000000000000000000000000000000000000000000000000000000000000000040000000000000000000000400000000000000000000000000000000000000000000",
      "type": "0x2",
      "transactionHash": "0x4c5b41a8ef4eb07937e189e2d218927abaa106de1e1fb3e84a4bca5709f80846",
      "transactionIndex": "0x46",
      "blockHash": "0x0f0333615eb0f7e98f1c0599bee75034934ea60f09ea00f5611b82e30cd5790b",
      "blockNumber": "0x14a56bf",
      "gasUsed": "0x8154",
      "effectiveGasPrice": "0xecebb",
      "from": "0xddb342ecc94236c29a5307d3757d0724d759453c",
      "to": "0xd9c45ad03c29d9b9773bf40db197780f7db4ef0d",
      "contractAddress": null,
      "l1BaseFeeScalar": "0x44d",
      "l1BlobBaseFee": "0x1",
      "l1BlobBaseFeeScalar": "0xa118b",
      "l1Fee": "0x73ed15b1",
      "l1GasPrice": "0x41ceaa0c",
      "l1GasUsed": "0x640"
    }
  ],
  "libraries": [],
  "pending": [],
  "returns": {},
  "timestamp": 1739066462,
  "chain": 84532,
  "commit": "dd900dd"
}