{
  "transactions": [
    {
      "hash": "0x71967669991b4790b23bdf3979734cb9e9f1759d965cc6c8163b81038320ce20",
      "transactionType": "CALL",
      "contractName": null,
      "contractAddress": "0x50139d921e6746c628db7abec73060e8da70afad",
      "function": "castVote(uint256,uint256,uint256[],uint256[])",
      "arguments": [
        "1",
        "0",
        "[0, 2, 0, 0]",
        "[40, 60, 0, 0]"
      ],
      "transaction": {
        "from": "0xddb342ecc94236c29a5307d3757d0724d759453c",
        "to": "0x50139d921e6746c628db7abec73060e8da70afad",
        "gas": "0x704b2",
        "value": "0x0",
        "input": "0x3c1a8f6b00000000000000000000000000000000000000000000000000000000000000010000000000000000000000000000000000000000000000000000000000000000000000000000000000000000000000000000000000000000000000000000008000000000000000000000000000000000000000000000000000000000000001200000000000000000000000000000000000000000000000000000000000000004000000000000000000000000000000000000000000000000000000000000000000000000000000000000000000000000000000000000000000000000000000020000000000000000000000000000000000000000000000000000000000000000000000000000000000000000000000000000000000000000000000000000000000000000000000000000000000000000000000000000000000000000000000040000000000000000000000000000000000000000000000000000000000000028000000000000000000000000000000000000000000000000000000000000003c00000000000000000000000000000000000000000000000000000000000000000000000000000000000000000000000000000000000000000000000000000000",
        "nonce": "0x26",
        "chainId": "0x14a34"
      },
      "additionalContracts": [],
      "isFixedGasLimit": false
    }
  ],
  "receipts": [
    {
      "status": "0x1",
      "cumulativeGasUsed": "0x44f2c8",
      "logs": [
        {
          "address": "0x50139d921e6746c628db7abec73060e8da70afad",
          "topics": [
            "0xa23fc440c6fc2e19ce408adc0b47622097fa7ea64409d71d33ba3fcdb5b4cd95",
            "0x000000000000000000000000ddb342ecc94236c29a5307d3757d0724d759453c",
            "0x0000000000000000000000000000000000000000000000000000000000000000"
          ],
          "data": "0x00000000000000000000000000000000000000000000000000000000000000060000000000000000000000000000000000000000000000000000000000000028",
          "blockHash": "0xca73b26625ef446d0c9babf576bc6bd899cfea70537adab7f1f56c98dca56ea9",
          "blockNumber": "0x14b21a2",
          "transactionHash": "0x71967669991b4790b23bdf3979734cb9e9f1759d965cc6c8163b81038320ce20",
          "transactionIndex": "0x22",
          "logIndex": "0x5a",
          "removed": false
        },
        {
          "address": "0x50139d921e6746c628db7abec73060e8da70afad",
          "topics": [
            "0xa23fc440c6fc2e19ce408adc0b47622097fa7ea64409d71d33ba3fcdb5b4cd95",
            "0x000000000000000000000000ddb342ecc94236c29a5307d3757d0724d759453c",
            "0x0000000000000000000000000000000000000000000000000000000000000002"
          ],
          "data": "0x0000000000000000000000000000000000000000000000000000000000000007000000000000000000000000000000000000000000000000000000000000003c",
          "blockHash": "0xca73b26625ef446d0c9babf576bc6bd899cfea70537adab7f1f56c98dca56ea9",
          "blockNumber": "0x14b21a2",
          "transactionHash": "0x71967669991b4790b23bdf3979734cb9e9f1759d965cc6c8163b81038320ce20",
          "transactionIndex": "0x22",
          "logIndex": "0x5b",
          "removed": false
        },
        {
          "address": "0x50139d921e6746c628db7abec73060e8da70afad",
          "topics": [
            "0xa23fc440c6fc2e19ce408adc0b47622097fa7ea64409d71d33ba3fcdb5b4cd95",
            "0x000000000000000000000000ddb342ecc94236c29a5307d3757d0724d759453c",
            "0x0000000000000000000000000000000000000000000000000000000000000000"
          ],
          "data": "0x00000000000000000000000000000000000000000000000000000000000000000000000000000000000000000000000000000000000000000000000000000000",
          "blockHash": "0xca73b26625ef446d0c9babf576bc6bd899cfea70537adab7f1f56c98dca56ea9",
          "blockNumber": "0x14b21a2",
          "transactionHash": "0x71967669991b4790b23bdf3979734cb9e9f1759d965cc6c8163b81038320ce20",
          "transactionIndex": "0x22",
          "logIndex": "0x5c",
          "removed": false
        },
        {
          "address": "0x50139d921e6746c628db7abec73060e8da70afad",
          "topics": [
            "0xa23fc440c6fc2e19ce408adc0b47622097fa7ea64409d71d33ba3fcdb5b4cd95",
            "0x000000000000000000000000ddb342ecc94236c29a5307d3757d0724d759453c",
            "0x0000000000000000000000000000000000000000000000000000000000000000"
          ],
          "data": "0x00000000000000000000000000000000000000000000000000000000000000000000000000000000000000000000000000000000000000000000000000000000",
          "blockHash": "0xca73b26625ef446d0c9babf576bc6bd899cfea70537adab7f1f56c98dca56ea9",
          "blockNumber": "0x14b21a2",
          "transactionHash": "0x71967669991b4790b23bdf3979734cb9e9f1759d965cc6c8163b81038320ce20",
          "transactionIndex": "0x22",
          "logIndex": "0x5d",
          "removed": false
        }
      ],
      "logsBloom": "0x04000000000000000000000000000000000000000000000000000000000000000000000000000000000000000000000000000000000000000000000000000000000000000000000000000004000000000000000000000000000000000080000400000000020000000000000000000800400000000000000000000000400000001000000000000000000000000000000000000000000000000000000000000000000000000000000000040100000000000000000000000000000000000000000000000000000000000000000000000000000000000000000000000002000020000000000000000000000000000000000000000000408000000000000000000000",
      "type": "0x2",
      "transactionHash": "0x71967669991b4790b23bdf3979734cb9e9f1759d965cc6c8163b81038320ce20",
      "transactionIndex": "0x22",
      "blockHash": "0xca73b26625ef446d0c9babf576bc6bd899cfea70537adab7f1f56c98dca56ea9",
      "blockNumber": "0x14b21a2",
      "gasUsed": "0x514c7",
      "effectiveGasPrice": "0x72199",
      "from": "0xddb342ecc94236c29a5307d3757d0724d759453c",
      "to": "0x50139d921e6746c628db7abec73060e8da70afad",
      "contractAddress": null,
      "l1BaseFeeScalar": "0x44d",
      "l1BlobBaseFee": "0x1",
      "l1BlobBaseFeeScalar": "0xa118b",
      "l1Fee": "0x27ad22d80",
      "l1GasPrice": "0x152f8e575",
      "l1GasUsed": "0x6a4"
    }
  ],
  "libraries": [],
  "pending": [],
  "returns": {},
  "timestamp": 1739170340,
  "chain": 84532,
  "commit": "dd900dd"
}