{
  "transactions": [
    {
      "hash": "0x4798057a41511d6574b25aba8b2945f2dd17211211cadfaa5b81718e401e143e",
      "transactionType": "CALL",
      "contractName": "QVContract",
      "contractAddress": "0x786333fFf4535F1169786d42F7e007abFD85Bd20",
      "function": "registerVoter(string)",
      "arguments": [
        "\"jeffowoloko@gmail.com\""
      ],
      "transaction": {
        "type": "0x02",
        "from": "0xddb342ecc94236c29a5307d3757d0724d759453c",
        "to": "0x786333fff4535f1169786d42f7e007abfd85bd20",
        "gas": "0xf29f",
        "value": "0x0",
        "data": "0x6428a486000000000000000000000000000000000000000000000000000000000000002000000000000000000000000000000000000000000000000000000000000000156a6566666f776f6c6f6b6f40676d61696c2e636f6d0000000000000000000000",
        "nonce": "0x4",
        "accessList": []
      },
      "additionalContracts": [],
      "isFixedGasLimit": false
    }
  ],
  "receipts": [
    {
      "transactionHash": "0x4798057a41511d6574b25aba8b2945f2dd17211211cadfaa5b81718e401e143e",
      "transactionIndex": "0x1",
      "blockHash": "0xcedb09a8ec692e77ab6e16700b77629373c4c023bda7b92a930216c0aa788eeb",
      "blockNumber": "0x1275d9c",
      "from": "0xDdb342ecc94236c29a5307d3757d0724D759453C",
      "to": "0x786333fFf4535F1169786d42F7e007abFD85Bd20",
      "cumulativeGasUsed": "0x15ae7",
      "gasUsed": "0xafa8",
      "contractAddress": null,
      "logs": [],
      "status": "0x1",
      "logsBloom": "0x00000000000000000000000000000000000000000000000000000000000000000000000000000000000000000000000000000000000000000000000000000000000000000000000000000000000000000000000000000000000000000000000000000000000000000000000000000000000000000000000000000000000000000000000000000000000000000000000000000000000000000000000000000000000000000000000000000000000000000000000000000000000000000000000000000000000000000000000000000000000000000000000000000000000000000000000000000000000000000000000000000000000000000000000000000000",
      "type": "0x2",
      "effectiveGasPrice": "0xb2d05f24"
    }
  ],
  "libraries": [],
  "pending": [],
  "returns": {},
  "timestamp": 1734482461,
  "chain": 84532,
  "multi": false,
  "commit": "5922de9"
}