{
  "transactions": [
    {
      "hash": "0x8440e722057ba69afabab24769e95aa57f7e3cf3e73b031a195ee35ae8ee211b",
      "transactionType": "CALL",
      "contractName": null,
      "contractAddress": "0x50139d921e6746c628db7abec73060e8da70afad",
      "function": "createVotingSession(uint256,string,string,uint256,uint256,uint256,(string,string,uint256)[])",
      "arguments": [
        "1",
        "Session 1",
        "New session to decide smester-1 budget allocation",
        "1739169586",
        "1739528400",
        "100",
        "[(Buy fans, Purchase new laboratory equipment for student experiments, 0), (Fix ACs, Allocate funds for industrial site visits and field trips, 0), (Hold a Lisk Meetup, Organize professional development workshops with industry experts, 0), (Buy new panels for the class, Create a small grant program for undergraduate research projects, 0)]"
      ],
      "transaction": {
        "from": "0xddb342ecc94236c29a5307d3757d0724d759453c",
        "to": "0x50139d921e6746c628db7abec73060e8da70afad",
        "gas": "0xeeff7",
        "value": "0x0",
        "input": "0x092271d1000000000000000000000000000000000000000000000000000000000000000100000000000000000000000000000000000000000000000000000000000000e000000000000000000000000000000000000000000000000000000000000001200000000000000000000000000000000000000000000000000000000067a99f320000000000000000000000000000000000000000000000000000000067af18d000000000000000000000000000000000000000000000000000000000000000640000000000000000000000000000000000000000000000000000000000000180000000000000000000000000000000000000000000000000000000000000000953657373696f6e2031000000000000000000000000000000000000000000000000000000000000000000000000000000000000000000000000000000000000314e65772073657373696f6e20746f2064656369646520736d65737465722d312062756467657420616c6c6f636174696f6e000000000000000000000000000000000000000000000000000000000000000000000000000000000000000000000400000000000000000000000000000000000000000000000000000000000000800000000000000000000000000000000000000000000000000000000000000180000000000000000000000000000000000000000000000000000000000000028000000000000000000000000000000000000000000000000000000000000003a0000000000000000000000000000000000000000000000000000000000000006000000000000000000000000000000000000000000000000000000000000000a0000000000000000000000000000000000000000000000000000000000000000000000000000000000000000000000000000000000000000000000000000000084275792066616e7300000000000000000000000000000000000000000000000000000000000000000000000000000000000000000000000000000000000000395075726368617365206e6577206c61626f7261746f72792065717569706d656e7420666f722073747564656e74206578706572696d656e747300000000000000000000000000000000000000000000000000000000000000000000000000006000000000000000000000000000000000000000000000000000000000000000a00000000000000000000000000000000000000000000000000000000000000000000000000000000000000000000000000000000000000000000000000000000746697820414373000000000000000000000000000000000000000000000000000000000000000000000000000000000000000000000000000000000000000039416c6c6f636174652066756e647320666f7220696e647573747269616c20736974652076697369747320616e64206669656c6420747269707300000000000000000000000000000000000000000000000000000000000000000000000000006000000000000000000000000000000000000000000000000000000000000000a000000000000000000000000000000000000000000000000000000000000000000000000000000000000000000000000000000000000000000000000000000012486f6c642061204c69736b204d6565747570000000000000000000000000000000000000000000000000000000000000000000000000000000000000000000414f7267616e697a652070726f66657373696f6e616c20646576656c6f706d656e7420776f726b73686f7073207769746820696e647573747279206578706572747300000000000000000000000000000000000000000000000000000000000000000000000000000000000000000000000000000000000000000000000000006000000000000000000000000000000000000000000000000000000000000000a00000000000000000000000000000000000000000000000000000000000000000000000000000000000000000000000000000000000000000000000000000001c427579206e65772070616e656c7320666f722074686520636c617373000000000000000000000000000000000000000000000000000000000000000000000040437265617465206120736d616c6c206772616e742070726f6772616d20666f7220756e64657267726164756174652072657365617263682070726f6a65637473",
        "nonce": "0x24",
        "chainId": "0x14a34"
      },
      "additionalContracts": [],
      "isFixedGasLimit": false
    }
  ],
  "receipts": [],
  "libraries": [],
  "pending": [],
  "returns": {},
  "timestamp": 1739169588,
  "chain": 84532,
  "commit": "dd900dd"
}