{
  "transactions": [
    {
      "hash": "0x692cf145ab1fc1b28c2ca4fe7d711087f4593941644baefe0de8f985f3910656",
      "transactionType": "CALL",
      "contractName": null,
      "contractAddress": "0x50139d921e6746c628db7abec73060e8da70afad",
      "function": "registerVoter(string)",
      "arguments": [
        "ENG1905131"
      ],
      "transaction": {
        "from": "0xadb559583bdb736937228cc3f1453a75262fae18",
        "to": "0x50139d921e6746c628db7abec73060e8da70afad",
        "gas": "0x17532",
        "value": "0x0",
        "input": "0x6428a4860000000000000000000000000000000000000000000000000000000000000020000000000000000000000000000000000000000000000000000000000000000a454e473139303531333100000000000000000000000000000000000000000000",
        "nonce": "0x0",
        "chainId": "0x14a34"
      },
      "additionalContracts": [],
      "isFixedGasLimit": false
    }
  ],
  "receipts": [
    {
      "status": "0x1",
      "cumulativeGasUsed": "0x52c3dc",
      "logs": [
        {
          "address": "0x50139d921e6746c628db7abec73060e8da70afad",
          "topics": [
            "0xffeb7702be7dcd8fee170d954b70afb9a7c78f7f5cff232d037e7b9d8243356a",
            "0x000000000000000000000000adb559583bdb736937228cc3f1453a75262fae18"
          ],
          "data": "0x0000000000000000000000000000000000000000000000000000000000000020000000000000000000000000000000000000000000000000000000000000000a454e473139303531333100000000000000000000000000000000000000000000",
          "blockHash": "0xd2a79ad89f3f35812eea86d25c89de3a829783ba4cd3c0f21beb5acc985a9acb",
          "blockNumber": "0x14b182b",
          "transactionHash": "0x692cf145ab1fc1b28c2ca4fe7d711087f4593941644baefe0de8f985f3910656",
          "transactionIndex": "0x2a",
          "logIndex": "0x60",
          "removed": false
        }
      ],
      "logsBloom": "0x00000000000000000000200000000000000000100000000000000000000000000000000000000000000000000000000000000000000000000000000000000000000000000000000000000000000000000000000000000200000000000080000000000000000000000000000000000000000000000000000000020000000000003000000000000000000000000000000000000000000000000000000000000000000000000000000000000000000000000000000000100000000000000000000000000000000000000000000000000000000000000000000000000002000000000000000000000000000000000000000000000000000000000000000000000000",
      "type": "0x2",
      "transactionHash": "0x692cf145ab1fc1b28c2ca4fe7d711087f4593941644baefe0de8f985f3910656",
      "transactionIndex": "0x2a",
      "blockHash": "0xd2a79ad89f3f35812eea86d25c89de3a829783ba4cd3c0f21beb5acc985a9acb",
      "blockNumber": "0x14b182b",
      "gasUsed": "0x10e30",
      "effectiveGasPrice": "0xb7333",
      "from": "0xadb559583bdb736937228cc3f1453a75262fae18",
      "to": "0x50139d921e6746c628db7abec73060e8da70afad",
      "contractAddress": null,
      "l1BaseFeeScalar": "0x44d",
      "l1BlobBaseFee": "0x1",
      "l1BlobBaseFeeScalar": "0xa118b",
      "l1Fee": "0x1137af168",
      "l1GasPrice": "0x9c617598",
      "l1GasUsed": "0x640"
    }
  ],
  "libraries": [],
  "pending": [],
  "returns": {},
  "timestamp": 1739165494,
  "chain": 84532,
  "commit": "dd900dd"
}