{
  "transactions": [
    {
      "hash": "0x919d58cce3d56c93d8077b5350b88da4f16d4049f555722ea167f3ee8542bec1",
      "transactionType": "CALL",
      "contractName": null,
      "contractAddress": "0x50139d921e6746c628db7abec73060e8da70afad",
      "function": "createRoom(string,string,string)",
      "arguments": [
        "CPE-190",
        "Vote on how to allocate the 2024 session funds",
        "ENG190"
      ],
      "transaction": {
        "from": "0xddb342ecc94236c29a5307d3757d0724d759453c",
        "to": "0x50139d921e6746c628db7abec73060e8da70afad",
        "gas": "0x5baf4",
        "value": "0x0",
        "input": "0x1ea7c445000000000000000000000000000000000000000000000000000000000000006000000000000000000000000000000000000000000000000000000000000000a0000000000000000000000000000000000000000000000000000000000000010000000000000000000000000000000000000000000000000000000000000000074350452d31393000000000000000000000000000000000000000000000000000000000000000000000000000000000000000000000000000000000000000002e566f7465206f6e20686f7720746f20616c6c6f636174652074686520323032342073657373696f6e2066756e64730000000000000000000000000000000000000000000000000000000000000000000000000000000000000000000000000006454e473139300000000000000000000000000000000000000000000000000000",
        "nonce": "0x1f",
        "chainId": "0x14a34"
      },
      "additionalContracts": [],
      "isFixedGasLimit": false
    }
  ],
  "receipts": [
    {
      "status": "0x1",
      "cumulativeGasUsed": "0xb0e1bf",
      "logs": [
        {
          "address": "0x50139d921e6746c628db7abec73060e8da70afad",
          "topics": [
            "0x9a658b74d50d3a24b6621fae25f87f046bab19ad7b3dc633600ac2f592b760ce",
            "0x0000000000000000000000000000000000000000000000000000000000000001"
          ],
          "data": "0x0000000000000000000000000000000000000000000000000000000000000040000000000000000000000000ddb342ecc94236c29a5307d3757d0724d759453c00000000000000000000000000000000000000000000000000000000000000074350452d31393000000000000000000000000000000000000000000000000000",
          "blockHash": "0x8b2f6e23bbeddeeb21c8673ab4af8c31e26320b68625ca6702a9400c56f544af",
          "blockNumber": "0x14b1721",
          "transactionHash": "0x919d58cce3d56c93d8077b5350b88da4f16d4049f555722ea167f3ee8542bec1",
          "transactionIndex": "0x2c",
          "logIndex": "0x61",
          "removed": false
        }
      ],
      "logsBloom": "0x00000000000000000000000000000000000000000000000000000000000000000000000000000000000000000000000000000000000000000000000000040000000000000000000000000200000000000000000000040000000000000080000000000000010000000000000000000000000000000000000000000000000000001000000000000000000000000000000000000000000000008000000000000000000000000000000000000000000000000000000000000000000000000000000000000000000000000000000000000000000000000000000000000002000040000000000000000000000000000000000000000000000000000000000000000000",
      "type": "0x2",
      "transactionHash": "0x919d58cce3d56c93d8077b5350b88da4f16d4049f555722ea167f3ee8542bec1",
      "transactionIndex": "0x2c",
      "blockHash": "0x8b2f6e23bbeddeeb21c8673ab4af8c31e26320b68625ca6702a9400c56f544af",
      "blockNumber": "0x14b1721",
      "gasUsed": "0x4260d",
      "effectiveGasPrice": "0xeced8",
      "from": "0xddb342ecc94236c29a5307d3757d0724d759453c",
      "to": "0x50139d921e6746c628db7abec73060e8da70afad",
      "contractAddress": null,
      "l1BaseFeeScalar": "0x44d",
      "l1BlobBaseFee": "0x1",
      "l1BlobBaseFeeScalar": "0xa118b",
      "l1Fee": "0x18c02d79a",
      "l1GasPrice": "0x9eeede3f",
      "l1GasUsed": "0x8d7"
    }
  ],
  "libraries": [],
  "pending": [],
  "returns": {},
  "timestamp": 1739164963,
  "chain": 84532,
  "commit": "dd900dd"
}