{
  "transactions": [
    {
      "hash": "0x7f07acfba5a9347771f4b51f868a56364ef183d6047cf381f0d6bb32387de1cd",
      "transactionType": "CALL",
      "contractName": null,
      "contractAddress": "0xd9c45ad03c29d9b9773bf40db197780f7db4ef0d",
      "function": "createRoom(string,string,string)",
      "arguments": [
        "CPE-19",
        "Vote on how to allocate the 2024 session funds",
        "ENG190"
      ],
      "transaction": {
        "from": "0xddb342ecc94236c29a5307d3757d0724d759453c",
        "to": "0xd9c45ad03c29d9b9773bf40db197780f7db4ef0d",
        "gas": "0x592dc",
        "value": "0x0",
        "input": "0x1ea7c445000000000000000000000000000000000000000000000000000000000000006000000000000000000000000000000000000000000000000000000000000000a0000000000000000000000000000000000000000000000000000000000000010000000000000000000000000000000000000000000000000000000000000000064350452d31390000000000000000000000000000000000000000000000000000000000000000000000000000000000000000000000000000000000000000002e566f7465206f6e20686f7720746f20616c6c6f636174652074686520323032342073657373696f6e2066756e64730000000000000000000000000000000000000000000000000000000000000000000000000000000000000000000000000006454e473139300000000000000000000000000000000000000000000000000000",
        "nonce": "0xc",
        "chainId": "0x14a34"
      },
      "additionalContracts": [],
      "isFixedGasLimit": false
    }
  ],
  "receipts": [
    {
      "status": "0x1",
      "cumulativeGasUsed": "0x42d37c",
      "logs": [
        {
          "address": "0xd9c45ad03c29d9b9773bf40db197780f7db4ef0d",
          "topics": [
            "0x9a658b74d50d3a24b6621fae25f87f046bab19ad7b3dc633600ac2f592b760ce",
            "0x0000000000000000000000000000000000000000000000000000000000000001"
          ],
          "data": "0x0000000000000000000000000000000000000000000000000000000000000040000000000000000000000000ddb342ecc94236c29a5307d3757d0724d759453c00000000000000000000000000000000000000000000000000000000000000064350452d31390000000000000000000000000000000000000000000000000000",
          "blockHash": "0xc691361e21429612b9bf5f376e440ed60b5e7a8b4098e8ac6305e7f30e2c8d9f",
          "blockNumber": "0x14926c7",
          "transactionHash": "0x7f07acfba5a9347771f4b51f868a56364ef183d6047cf381f0d6bb32387de1cd",
          "transactionIndex": "0x26",
          "logIndex": "0x5c",
          "removed": false
        }
      ],
      "logsBloom": "0x00000000000000000000000000000000000000000000000000000000000000000000000000000000000000000000000000000000000000000000000000040000000000000000000000000200000000000000000000040000000000000000000000000000010000000000000000000000000000000000000000000000000000000000000000000000000000000000000000000000000000008000000000800000000000000010000000000000000000000000000000000000000000000000000000000000000000000000000000000000000000000000000000000000000040000000000000000000000400000000000000000000000000000000000000000000",
      "type": "0x2",
      "transactionHash": "0x7f07acfba5a9347771f4b51f868a56364ef183d6047cf381f0d6bb32387de1cd",
      "transactionIndex": "0x26",
      "blockHash": "0xc691361e21429612b9bf5f376e440ed60b5e7a8b4098e8ac6305e7f30e2c8d9f",
      "blockNumber": "0x14926c7",
      "gasUsed": "0x3cfa2",
      "effectiveGasPrice": "0x1886e",
      "from": "0xddb342ecc94236c29a5307d3757d0724d759453c",
      "to": "0xd9c45ad03c29d9b9773bf40db197780f7db4ef0d",
      "contractAddress": null,
      "l1BaseFeeScalar": "0x44d",
      "l1BlobBaseFee": "0x1",
      "l1BlobBaseFeeScalar": "0xa118b",
      "l1Fee": "0x1aaf8030bb",
      "l1GasPrice": "0xa95ab7bba",
      "l1GasUsed": "0x8f1"
    }
  ],
  "libraries": [],
  "pending": [],
  "returns": {},
  "timestamp": 1738910830,
  "chain": 84532,
  "commit": "dd900dd"
}