{
  "transactions": [
    {
      "hash": "0x5b24fffaa3eb33821e2ae64573330109849c686f5a1c39b7db9da8515e09d9ea",
      "transactionType": "CALL",
      "contractName": null,
      "contractAddress": "0xd9c45ad03c29d9b9773bf40db197780f7db4ef0d",
      "function": "createRoom(string,string,string)",
      "arguments": [
        "CPE-20",
        "Vote on how to allocate the 2024 session funds",
        "ENG190"
      ],
      "transaction": {
        "from": "0xddb342ecc94236c29a5307d3757d0724d759453c",
        "to": "0xd9c45ad03c29d9b9773bf40db197780f7db4ef0d",
        "gas": "0x4cf7b",
        "value": "0x0",
        "input": "0x1ea7c445000000000000000000000000000000000000000000000000000000000000006000000000000000000000000000000000000000000000000000000000000000a0000000000000000000000000000000000000000000000000000000000000010000000000000000000000000000000000000000000000000000000000000000064350452d32300000000000000000000000000000000000000000000000000000000000000000000000000000000000000000000000000000000000000000002e566f7465206f6e20686f7720746f20616c6c6f636174652074686520323032342073657373696f6e2066756e64730000000000000000000000000000000000000000000000000000000000000000000000000000000000000000000000000006454e473139300000000000000000000000000000000000000000000000000000",
        "nonce": "0x12",
        "chainId": "0x14a34"
      },
      "additionalContracts": [],
      "isFixedGasLimit": false
    }
  ],
  "receipts": [
    {
      "status": "0x1",
      "cumulativeGasUsed": "0x2ed7c4",
      "logs": [
        {
          "address": "0xd9c45ad03c29d9b9773bf40db197780f7db4ef0d",
          "topics": [
            "0x9a658b74d50d3a24b6621fae25f87f046bab19ad7b3dc633600ac2f592b760ce",
            "0x0000000000000000000000000000000000000000000000000000000000000002"
          ],
          "data": "0x0000000000000000000000000000000000000000000000000000000000000040000000000000000000000000ddb342ecc94236c29a5307d3757d0724d759453c00000000000000000000000000000000000000000000000000000000000000064350452d32300000000000000000000000000000000000000000000000000000",
          "blockHash": "0xa94cd0e55404aee8ccfe855bd73da42a8857194b19e12915b064ed506861f473",
          "blockNumber": "0x14a463e",
          "transactionHash": "0x5b24fffaa3eb33821e2ae64573330109849c686f5a1c39b7db9da8515e09d9ea",
          "transactionIndex": "0x13",
          "logIndex": "0x36",
          "removed": false
        }
      ],
      "logsBloom": "0x04000000000000000000000000000000000000000000000000000000000000000000000000000000000000000000000000000000000000000000000000000000000000000000000000000200000000000000000000000000000000000000000000000000010000000000000000000000000000000000000000000000000000000000000000000000000000000000000000000000000000008000000000800000000000000010000000000100000000000000000000000000000000000000000000000000000000000000000000000000000000000000000000000000000000000000000000000000000400000000000000000000008000000000000000000000",
      "type": "0x2",
      "transactionHash": "0x5b24fffaa3eb33821e2ae64573330109849c686f5a1c39b7db9da8515e09d9ea",
      "transactionIndex": "0x13",
      "blockHash": "0xa94cd0e55404aee8ccfe855bd73da42a8857194b19e12915b064ed506861f473",
      "blockNumber": "0x14a463e",
      "gasUsed": "0x34a0a",
      "effectiveGasPrice": "0xf40ad",
      "from": "0xddb342ecc94236c29a5307d3757d0724d759453c",
      "to": "0xd9c45ad03c29d9b9773bf40db197780f7db4ef0d",
      "contractAddress": null,
      "l1BaseFeeScalar": "0x44d",
      "l1BlobBaseFee": "0x1",
      "l1BlobBaseFeeScalar": "0xa118b",
      "l1Fee": "0x11f1dd69d",
      "l1GasPrice": "0x728d6c54",
      "l1GasUsed": "0x8e4"
    }
  ],
  "libraries": [],
  "pending": [],
  "returns": {},
  "timestamp": 1739058013,
  "chain": 84532,
  "commit": "dd900dd"
}