{
  "transactions": [
    {
      "hash": "0xc03b3a9eadaaae2f655dd27e24c54164397f583d27856ae63df23176c3c0d443",
      "transactionType": "CALL",
      "contractName": "QVContract",
      "contractAddress": "0x786333fFf4535F1169786d42F7e007abFD85Bd20",
      "function": "createVotingSession(string,string,uint256,uint256,uint256)",
      "arguments": [
        "\"Session 1\"",
        "\"Description 1\"",
        "1734484192",
        "1734493192",
        "100"
      ],
      "transaction": {
        "type": "0x02",
        "from": "0xddb342ecc94236c29a5307d3757d0724d759453c",
        "to": "0x786333fff4535f1169786d42f7e007abfd85bd20",
        "gas": "0x379fb",
        "value": "0x0",
        "data": "0xf6e58b9600000000000000000000000000000000000000000000000000000000000000a000000000000000000000000000000000000000000000000000000000000000e000000000000000000000000000000000000000000000000000000000676220e000000000000000000000000000000000000000000000000000000000676244080000000000000000000000000000000000000000000000000000000000000064000000000000000000000000000000000000000000000000000000000000000953657373696f6e20310000000000000000000000000000000000000000000000000000000000000000000000000000000000000000000000000000000000000d4465736372697074696f6e203100000000000000000000000000000000000000",
        "nonce": "0x5",
        "accessList": []
      },
      "additionalContracts": [],
      "isFixedGasLimit": false
    }
  ],
  "receipts": [],
  "libraries": [],
  "pending": [
    "0xc03b3a9eadaaae2f655dd27e24c54164397f583d27856ae63df23176c3c0d443"
  ],
  "returns": {},
  "timestamp": 1734483212,
  "chain": 84532,
  "multi": false,
  "commit": "5922de9"
}