{
  "transactions": [
    {
      "hash": "0x2fc8f45845191ecb85d5cd110d5567149f5953ab1e7a36afe149320778d99ea5",
      "transactionType": "CALL",
      "contractName": null,
      "contractAddress": "0x2e73f44bf19344627e7abc8d4940847c1cc9c5e1",
      "function": "createRoom(string,string,string)",
      "arguments": [
        "CPE-190",
        "Vote on how to allocate the 2024 session funds",
        "ENG190"
      ],
      "transaction": {
        "from": "0xddb342ecc94236c29a5307d3757d0724d759453c",
        "to": "0x2e73f44bf19344627e7abc8d4940847c1cc9c5e1",
        "gas": "0x543a7",
        "value": "0x0",
        "input": "0x1ea7c445000000000000000000000000000000000000000000000000000000000000006000000000000000000000000000000000000000000000000000000000000000a0000000000000000000000000000000000000000000000000000000000000010000000000000000000000000000000000000000000000000000000000000000074350452d31393000000000000000000000000000000000000000000000000000000000000000000000000000000000000000000000000000000000000000002e566f7465206f6e20686f7720746f20616c6c6f636174652074686520323032342073657373696f6e2066756e64730000000000000000000000000000000000000000000000000000000000000000000000000000000000000000000000000006454e473139300000000000000000000000000000000000000000000000000000",
        "nonce": "0x18",
        "chainId": "0x14a34"
      },
      "additionalContracts": [],
      "isFixedGasLimit": false
    }
  ],
  "receipts": [
    {
      "status": "0x1",
      "cumulativeGasUsed": "0x126e709",
      "logs": [
        {
          "address": "0x2e73f44bf19344627e7abc8d4940847c1cc9c5e1",
          "topics": [
            "0x9a658b74d50d3a24b6621fae25f87f046bab19ad7b3dc633600ac2f592b760ce",
            "0x0000000000000000000000000000000000000000000000000000000000000001"
          ],
          "data": "0x0000000000000000000000000000000000000000000000000000000000000040000000000000000000000000ddb342ecc94236c29a5307d3757d0724d759453c00000000000000000000000000000000000000000000000000000000000000074350452d31393000000000000000000000000000000000000000000000000000",
          "blockHash": "0x20fd56285ad878091b484d8e02d3d3890a947623c3b115e03820df94470744ea",
          "blockNumber": "0x14b15b7",
          "transactionHash": "0x2fc8f45845191ecb85d5cd110d5567149f5953ab1e7a36afe149320778d99ea5",
          "transactionIndex": "0x34",
          "logIndex": "0xa1",
          "removed": false
        }
      ],
      "logsBloom": "0x00000000000000000000000000000000000000000000000000000000000000000000000000000000000000000200000000000000000000000000000000040000000000000000000000000200000000000000000000040000000000000000000000000000010000000000000000000000000000000000000000000000000000000000000000000000000000000000000000000000000000008000000000000000000000000000000000000000000000000000000000000000000000000001000000000000000000000000000000000000000000000000000000000000000040000000000000000000000000000000000000000000000000000000000020000000",
      "type": "0x2",
      "transactionHash": "0x2fc8f45845191ecb85d5cd110d5567149f5953ab1e7a36afe149320778d99ea5",
      "transactionIndex": "0x34",
      "blockHash": "0x20fd56285ad878091b484d8e02d3d3890a947623c3b115e03820df94470744ea",
      "blockNumber": "0x14b15b7",
      "gasUsed": "0x3cfae",
      "effectiveGasPrice": "0xeceba",
      "from": "0xddb342ecc94236c29a5307d3757d0724d759453c",
      "to": "0x2e73f44bf19344627e7abc8d4940847c1cc9c5e1",
      "contractAddress": null,
      "l1BaseFeeScalar": "0x44d",
      "l1BlobBaseFee": "0x1",
      "l1BlobBaseFeeScalar": "0xa118b",
      "l1Fee": "0x1dfdf29bb",
      "l1GasPrice": "0xc096dad4",
      "l1GasUsed": "0x8d7"
    }
  ],
  "libraries": [],
  "pending": [],
  "returns": {},
  "timestamp": 1739164239,
  "chain": 84532,
  "commit": "dd900dd"
}