{
  "transactions": [
    {
      "hash": "0xf306350c3180722afae1f3e8731ce3eadd2de53e8b2de59dab818b09bfcf73fa",
      "transactionType": "CALL",
      "contractName": null,
      "contractAddress": "0x2e73f44bf19344627e7abc8d4940847c1cc9c5e1",
      "function": "createRoom(string,string,string)",
      "arguments": [
        "CPE-190",
        "Vote on how to allocate the 2024 session funds",
        "ENG190"
      ],
      "transaction": {
        "from": "0xddb342ecc94236c29a5307d3757d0724d759453c",
        "to": "0x2e73f44bf19344627e7abc8d4940847c1cc9c5e1",
        "gas": "0x48b21",
        "value": "0x0",
        "input": "0x1ea7c445000000000000000000000000000000000000000000000000000000000000006000000000000000000000000000000000000000000000000000000000000000a0000000000000000000000000000000000000000000000000000000000000010000000000000000000000000000000000000000000000000000000000000000074350452d31393000000000000000000000000000000000000000000000000000000000000000000000000000000000000000000000000000000000000000002e566f7465206f6e20686f7720746f20616c6c6f636174652074686520323032342073657373696f6e2066756e64730000000000000000000000000000000000000000000000000000000000000000000000000000000000000000000000000006454e473139300000000000000000000000000000000000000000000000000000",
        "nonce": "0x19",
        "chainId": "0x14a34"
      },
      "additionalContracts": [],
      "isFixedGasLimit": false
    },
    {
      "hash": "0x43ece6fee697db2fddde1df997b564fda8ff848e86c569c998d5d6f8a4b92278",
      "transactionType": "CALL",
      "contractName": null,
      "contractAddress": "0x2e73f44bf19344627e7abc8d4940847c1cc9c5e1",
      "function": "registerVoter(string)",
      "arguments": [
        "ENG1905130"
      ],
      "transaction": {
        "from": "0xddb342ecc94236c29a5307d3757d0724d759453c",
        "to": "0x2e73f44bf19344627e7abc8d4940847c1cc9c5e1",
        "gas": "0x17532",
        "value": "0x0",
        "input": "0x6428a4860000000000000000000000000000000000000000000000000000000000000020000000000000000000000000000000000000000000000000000000000000000a454e473139303531333000000000000000000000000000000000000000000000",
        "nonce": "0x1a",
        "chainId": "0x14a34"
      },
      "additionalContracts": [],
      "isFixedGasLimit": false
    }
  ],
  "receipts": [
    {
      "status": "0x1",
      "cumulativeGasUsed": "0x4be17f",
      "logs": [
        {
          "address": "0x2e73f44bf19344627e7abc8d4940847c1cc9c5e1",
          "topics": [
            "0x9a658b74d50d3a24b6621fae25f87f046bab19ad7b3dc633600ac2f592b760ce",
            "0x0000000000000000000000000000000000000000000000000000000000000002"
          ],
          "data": "0x0000000000000000000000000000000000000000000000000000000000000040000000000000000000000000ddb342ecc94236c29a5307d3757d0724d759453c00000000000000000000000000000000000000000000000000000000000000074350452d31393000000000000000000000000000000000000000000000000000",
          "blockHash": "0x9b76ea5379d5674ca2af4f37aac1073fce8fa366f820c45ea711061ad44e77a1",
          "blockNumber": "0x14b15cb",
          "transactionHash": "0xf306350c3180722afae1f3e8731ce3eadd2de53e8b2de59dab818b09bfcf73fa",
          "transactionIndex": "0x21",
          "logIndex": "0x5c",
          "removed": false
        }
      ],
      "logsBloom": "0x04000000000000000000000000000000000000000000000000000000000000000000000000000000000000000200000000000000000000000000000000000000000000000000000000000200000000000000000000000000000000000000000000000000010000000000000000000000000000000000000000000000000000000000000000000000000000000000000000000000000000008000000000000000000000000000000000000100000000000000000000000000000000000001000000000000000000000000000000000000000000000000000000000000000000000000000000000000000000000000000000000000008000000000000020000000",
      "type": "0x2",
      "transactionHash": "0xf306350c3180722afae1f3e8731ce3eadd2de53e8b2de59dab818b09bfcf73fa",
      "transactionIndex": "0x21",
      "blockHash": "0x9b76ea5379d5674ca2af4f37aac1073fce8fa366f820c45ea711061ad44e77a1",
      "blockNumber": "0x14b15cb",
      "gasUsed": "0x34a16",
      "effectiveGasPrice": "0xecebf",
      "from": "0xddb342ecc94236c29a5307d3757d0724d759453c",
      "to": "0x2e73f44bf19344627e7abc8d4940847c1cc9c5e1",
      "contractAddress": null,
      "l1BaseFeeScalar": "0x44d",
      "l1BlobBaseFee": "0x1",
      "l1BlobBaseFeeScalar": "0xa118b",
      "l1Fee": "0x1ad3045be",
      "l1GasPrice": "0xac3f9407",
      "l1GasUsed": "0x8d7"
    },
    {
      "status": "0x1",
      "cumulativeGasUsed": "0x4cefaf",
      "logs": [
        {
          "address": "0x2e73f44bf19344627e7abc8d4940847c1cc9c5e1",
          "topics": [
            "0xffeb7702be7dcd8fee170d954b70afb9a7c78f7f5cff232d037e7b9d8243356a",
            "0x000000000000000000000000ddb342ecc94236c29a5307d3757d0724d759453c"
          ],
          "data": "0x0000000000000000000000000000000000000000000000000000000000000020000000000000000000000000000000000000000000000000000000000000000a454e473139303531333000000000000000000000000000000000000000000000",
          "blockHash": "0x9b76ea5379d5674ca2af4f37aac1073fce8fa366f820c45ea711061ad44e77a1",
          "blockNumber": "0x14b15cb",
          "transactionHash": "0x43ece6fee697db2fddde1df997b564fda8ff848e86c569c998d5d6f8a4b92278",
          "transactionIndex": "0x22",
          "logIndex": "0x5d",
          "removed": false
        }
      ],
      "logsBloom": "0x00000000000000000000200000000000000000000000000000000000000000000000000000000000000000000200000000000000000000000000000000000000000000000000000000000000000000000000000000000200000000000000000400000000000000000000000000000000400000000000000000000000400000000000000000000000000000000000000000000000000000000000000000000000000000000000000000000000000000000000000000100000000000000001000000000000000000000000000000000000000000000000000000000000000000000000000000000000000000000000000000000000000000000000000020000000",
      "type": "0x2",
      "transactionHash": "0x43ece6fee697db2fddde1df997b564fda8ff848e86c569c998d5d6f8a4b92278",
      "transactionIndex": "0x22",
      "blockHash": "0x9b76ea5379d5674ca2af4f37aac1073fce8fa366f820c45ea711061ad44e77a1",
      "blockNumber": "0x14b15cb",
      "gasUsed": "0x10e30",
      "effectiveGasPrice": "0xecebf",
      "from": "0xddb342ecc94236c29a5307d3757d0724d759453c",
      "to": "0x2e73f44bf19344627e7abc8d4940847c1cc9c5e1",
      "contractAddress": null,
      "l1BaseFeeScalar": "0x44d",
      "l1BlobBaseFee": "0x1",
      "l1BlobBaseFeeScalar": "0xa118b",
      "l1Fee": "0x12f6ec588",
      "l1GasPrice": "0xac3f9407",
      "l1GasUsed": "0x640"
    }
  ],
  "libraries": [],
  "pending": [],
  "returns": {},
  "timestamp": 1739164279,
  "chain": 84532,
  "commit": "dd900dd"
}