{
  "transactions": [
    {
      "hash": "0xb58fea02ff85d3b28f612b138581751d5e9b822a0f90e768eb023c55b82b8ca1",
      "transactionType": "CALL",
      "contractName": null,
      "contractAddress": "0x46b6f0e645faaeb900e538037b916aec9afa5b06",
      "function": "createRoom(string,string,string)",
      "arguments": [
        "CPE-19",
        "Vote on how to allocate the 2024 session funds",
        "ENG190"
      ],
      "transaction": {
        "from": "0xddb342ecc94236c29a5307d3757d0724d759453c",
        "to": "0x46b6f0e645faaeb900e538037b916aec9afa5b06",
        "gas": "0x454af",
        "value": "0x0",
        "input": "0x1ea7c445000000000000000000000000000000000000000000000000000000000000006000000000000000000000000000000000000000000000000000000000000000a0000000000000000000000000000000000000000000000000000000000000010000000000000000000000000000000000000000000000000000000000000000064350452d31390000000000000000000000000000000000000000000000000000000000000000000000000000000000000000000000000000000000000000002e566f7465206f6e20686f7720746f20616c6c6f636174652074686520323032342073657373696f6e2066756e64730000000000000000000000000000000000000000000000000000000000000000000000000000000000000000000000000006454e473139300000000000000000000000000000000000000000000000000000",
        "nonce": "0x7",
        "chainId": "0x14a34"
      },
      "additionalContracts": [],
      "isFixedGasLimit": false
    }
  ],
  "receipts": [
    {
      "status": "0x1",
      "cumulativeGasUsed": "0x281c30",
      "logs": [
        {
          "address": "0x46b6f0e645faaeb900e538037b916aec9afa5b06",
          "topics": [
            "0x9a658b74d50d3a24b6621fae25f87f046bab19ad7b3dc633600ac2f592b760ce",
            "0x0000000000000000000000000000000000000000000000000000000000000000"
          ],
          "data": "0x0000000000000000000000000000000000000000000000000000000000000040000000000000000000000000ddb342ecc94236c29a5307d3757d0724d759453c00000000000000000000000000000000000000000000000000000000000000064350452d31390000000000000000000000000000000000000000000000000000",
          "blockHash": "0x19af14b9851d7bcb21d1aba1ee0cc477c87bbf723f613cb25e63fdf7e2e32b38",
          "blockNumber": "0x1478c60",
          "transactionHash": "0xb58fea02ff85d3b28f612b138581751d5e9b822a0f90e768eb023c55b82b8ca1",
          "transactionIndex": "0x18",
          "logIndex": "0x32",
          "removed": false
        }
      ],
      "logsBloom": "0x00000000000000000000000000000000000000000000000000000000000000000000000000000000000000000000000000000000000000000000000000000000080000000000000000000200000000000000000000080000000000000000000000000000030000000000000000000800000000000000000000000000000000000000000000000000000000000000000000000000000000008000000000000000000000000000000000000000000000000000000000000000000000000000004000000000000000000000000000000000000000000000000000000000000020000000000000000000000000000000000000000000000000000000000000000000",
      "type": "0x2",
      "transactionHash": "0xb58fea02ff85d3b28f612b138581751d5e9b822a0f90e768eb023c55b82b8ca1",
      "transactionIndex": "0x18",
      "blockHash": "0x19af14b9851d7bcb21d1aba1ee0cc477c87bbf723f613cb25e63fdf7e2e32b38",
      "blockNumber": "0x1478c60",
      "gasUsed": "0x322ac",
      "effectiveGasPrice": "0x187dc",
      "from": "0xddb342ecc94236c29a5307d3757d0724d759453c",
      "to": "0x46b6f0e645faaeb900e538037b916aec9afa5b06",
      "contractAddress": null,
      "l1BaseFeeScalar": "0x44d",
      "l1BlobBaseFee": "0x1",
      "l1BlobBaseFeeScalar": "0xa118b",
      "l1Fee": "0xa0b7d01f",
      "l1GasPrice": "0x3fbf6c20",
      "l1GasUsed": "0x8f1"
    }
  ],
  "libraries": [],
  "pending": [],
  "returns": {},
  "timestamp": 1738700705,
  "chain": 84532,
  "commit": "dd900dd"
}