{
  "transactions": [
    {
      "hash": "0x7eb6837dcdfbda7223e879558016216cfbb2442b7eaf32df24e4a31a8c53c93c",
      "transactionType": "CALL",
      "contractName": null,
      "contractAddress": "0xd9c45ad03c29d9b9773bf40db197780f7db4ef0d",
      "function": "createVotingSession(uint256,string,string,uint256,uint256,uint256,(string,string,uint256)[])",
      "arguments": [
        "1",
        "Session 1",
        "Description 1",
        "1738923600",
        "1739528400",
        "100",
        "[(Buy New Equipment, Purchase new laboratory equipment for student experiments, 0), (Field Trip Fund, Allocate funds for industrial site visits and field trips, 0), (Workshop Series, Organize professional development workshops with industry experts, 0), (Research Grant, Create a small grant program for undergraduate research projects, 0)]"
      ],
      "transaction": {
        "from": "0xddb342ecc94236c29a5307d3757d0724d759453c",
        "to": "0xd9c45ad03c29d9b9773bf40db197780f7db4ef0d",
        "gas": "0xd862b",
        "value": "0x0",
        "input": "0x092271d1000000000000000000000000000000000000000000000000000000000000000100000000000000000000000000000000000000000000000000000000000000e000000000000000000000000000000000000000000000000000000000000001200000000000000000000000000000000000000000000000000000000067a5de500000000000000000000000000000000000000000000000000000000067af18d000000000000000000000000000000000000000000000000000000000000000640000000000000000000000000000000000000000000000000000000000000160000000000000000000000000000000000000000000000000000000000000000953657373696f6e20310000000000000000000000000000000000000000000000000000000000000000000000000000000000000000000000000000000000000d4465736372697074696f6e203100000000000000000000000000000000000000000000000000000000000000000000000000000000000000000000000000000400000000000000000000000000000000000000000000000000000000000000800000000000000000000000000000000000000000000000000000000000000180000000000000000000000000000000000000000000000000000000000000028000000000000000000000000000000000000000000000000000000000000003a0000000000000000000000000000000000000000000000000000000000000006000000000000000000000000000000000000000000000000000000000000000a000000000000000000000000000000000000000000000000000000000000000000000000000000000000000000000000000000000000000000000000000000011427579204e65772045717569706d656e7400000000000000000000000000000000000000000000000000000000000000000000000000000000000000000000395075726368617365206e6577206c61626f7261746f72792065717569706d656e7420666f722073747564656e74206578706572696d656e747300000000000000000000000000000000000000000000000000000000000000000000000000006000000000000000000000000000000000000000000000000000000000000000a00000000000000000000000000000000000000000000000000000000000000000000000000000000000000000000000000000000000000000000000000000000f4669656c6420547269702046756e6400000000000000000000000000000000000000000000000000000000000000000000000000000000000000000000000039416c6c6f636174652066756e647320666f7220696e647573747269616c20736974652076697369747320616e64206669656c6420747269707300000000000000000000000000000000000000000000000000000000000000000000000000006000000000000000000000000000000000000000000000000000000000000000a00000000000000000000000000000000000000000000000000000000000000000000000000000000000000000000000000000000000000000000000000000000f576f726b73686f7020536572696573000000000000000000000000000000000000000000000000000000000000000000000000000000000000000000000000414f7267616e697a652070726f66657373696f6e616c20646576656c6f706d656e7420776f726b73686f7073207769746820696e647573747279206578706572747300000000000000000000000000000000000000000000000000000000000000000000000000000000000000000000000000000000000000000000000000006000000000000000000000000000000000000000000000000000000000000000a00000000000000000000000000000000000000000000000000000000000000000000000000000000000000000000000000000000000000000000000000000000e5265736561726368204772616e740000000000000000000000000000000000000000000000000000000000000000000000000000000000000000000000000040437265617465206120736d616c6c206772616e742070726f6772616d20666f7220756e64657267726164756174652072657365617263682070726f6a65637473",
        "nonce": "0xf",
        "chainId": "0x14a34"
      },
      "additionalContracts": [],
      "isFixedGasLimit": false
    }
  ],
  "receipts": [
    {
      "status": "0x1",
      "cumulativeGasUsed": "0xc9894e",
      "logs": [
        {
          "address": "0xd9c45ad03c29d9b9773bf40db197780f7db4ef0d",
          "topics": [
            "0xbb878f2a2e892d9a3562cba951f66485d18cf663715d59785bd1eafe3697a8c3",
            "0x0000000000000000000000000000000000000000000000000000000000000000",
            "0x0000000000000000000000000000000000000000000000000000000000000000"
          ],
          "data": "0x000000000000000000000000000000000000000000000000000000000000002000000000000000000000000000000000000000000000000000000000000000395075726368617365206e6577206c61626f7261746f72792065717569706d656e7420666f722073747564656e74206578706572696d656e747300000000000000",
          "blockHash": "0xe1c2e74960b8662557cb06167e4cc5fe1f5458c9d2e208076fdb81fb2de10765",
          "blockNumber": "0x1493376",
          "transactionHash": "0x7eb6837dcdfbda7223e879558016216cfbb2442b7eaf32df24e4a31a8c53c93c",
          "transactionIndex": "0x55",
          "logIndex": "0xea",
          "removed": false
        },
        {
          "address": "0xd9c45ad03c29d9b9773bf40db197780f7db4ef0d",
          "topics": [
            "0xbb878f2a2e892d9a3562cba951f66485d18cf663715d59785bd1eafe3697a8c3",
            "0x0000000000000000000000000000000000000000000000000000000000000000",
            "0x0000000000000000000000000000000000000000000000000000000000000001"
          ],
          "data": "0x00000000000000000000000000000000000000000000000000000000000000200000000000000000000000000000000000000000000000000000000000000039416c6c6f636174652066756e647320666f7220696e647573747269616c20736974652076697369747320616e64206669656c6420747269707300000000000000",
          "blockHash": "0xe1c2e74960b8662557cb06167e4cc5fe1f5458c9d2e208076fdb81fb2de10765",
          "blockNumber": "0x1493376",
          "transactionHash": "0x7eb6837dcdfbda7223e879558016216cfbb2442b7eaf32df24e4a31a8c53c93c",
          "transactionIndex": "0x55",
          "logIndex": "0xeb",
          "removed": false
        },
        {
          "address": "0xd9c45ad03c29d9b9773bf40db197780f7db4ef0d",
          "topics": [
            "0xbb878f2a2e892d9a3562cba951f66485d18cf663715d59785bd1eafe3697a8c3",
            "0x0000000000000000000000000000000000000000000000000000000000000000",
            "0x0000000000000000000000000000000000000000000000000000000000000002"
          ],
          "data": "0x000000000000000000000000000000000000000000000000000000000000002000000000000000000000000000000000000000000000000000000000000000414f7267616e697a652070726f66657373696f6e616c20646576656c6f706d656e7420776f726b73686f7073207769746820696e647573747279206578706572747300000000000000000000000000000000000000000000000000000000000000",
          "blockHash": "0xe1c2e74960b8662557cb06167e4cc5fe1f5458c9d2e208076fdb81fb2de10765",
          "blockNumber": "0x1493376",
          "transactionHash": "0x7eb6837dcdfbda7223e879558016216cfbb2442b7eaf32df24e4a31a8c53c93c",
          "transactionIndex": "0x55",
          "logIndex": "0xec",
          "removed": false
        },
        {
          "address": "0xd9c45ad03c29d9b9773bf40db197780f7db4ef0d",
          "topics": [
            "0xbb878f2a2e892d9a3562cba951f66485d18cf663715d59785bd1eafe3697a8c3",
            "0x0000000000000000000000000000000000000000000000000000000000000000",
            "0x0000000000000000000000000000000000000000000000000000000000000003"
          ],
          "data": "0x00000000000000000000000000000000000000000000000000000000000000200000000000000000000000000000000000000000000000000000000000000040437265617465206120736d616c6c206772616e742070726f6772616d20666f7220756e64657267726164756174652072657365617263682070726f6a65637473",
          "blockHash": "0xe1c2e74960b8662557cb06167e4cc5fe1f5458c9d2e208076fdb81fb2de10765",
          "blockNumber": "0x1493376",
          "transactionHash": "0x7eb6837dcdfbda7223e879558016216cfbb2442b7eaf32df24e4a31a8c53c93c",
          "transactionIndex": "0x55",
          "logIndex": "0xed",
          "removed": false
        },
        {
          "address": "0xd9c45ad03c29d9b9773bf40db197780f7db4ef0d",
          "topics": [
            "0xf66242045c9638038e1e48b63f01ca58318ef41710d5fd5a1d31e056b36a8db5",
            "0x0000000000000000000000000000000000000000000000000000000000000001",
            "0x0000000000000000000000000000000000000000000000000000000000000000"
          ],
          "data": "0x0000000000000000000000000000000000000000000000000000000000000040000000000000000000000000ddb342ecc94236c29a5307d3757d0724d759453c000000000000000000000000000000000000000000000000000000000000000953657373696f6e20310000000000000000000000000000000000000000000000",
          "blockHash": "0xe1c2e74960b8662557cb06167e4cc5fe1f5458c9d2e208076fdb81fb2de10765",
          "blockNumber": "0x1493376",
          "transactionHash": "0x7eb6837dcdfbda7223e879558016216cfbb2442b7eaf32df24e4a31a8c53c93c",
          "transactionIndex": "0x55",
          "logIndex": "0xee",
          "removed": false
        }
      ],
      "logsBloom": "0x04000000000000000000000000000000000000000000000000000000000000000000000000000000000000000000000000000000020000000000000000040000000000000000000000000000000000000000000000040000000000000000000000000000020000000000000000000800008000008000000000000000000000000000000000000000000000000000000000000000000000000000000000800000002000000010000000000100000000004000000000800000000000000000400000000000004000000000000000000000000000000004000000000000000060000000000000000000000400000000000000000000008000000000000000000000",
      "type": "0x2",
      "transactionHash": "0x7eb6837dcdfbda7223e879558016216cfbb2442b7eaf32df24e4a31a8c53c93c",
      "transactionIndex": "0x55",
      "blockHash": "0xe1c2e74960b8662557cb06167e4cc5fe1f5458c9d2e208076fdb81fb2de10765",
      "blockNumber": "0x1493376",
      "gasUsed": "0x9ca8d",
      "effectiveGasPrice": "0x188d4",
      "from": "0xddb342ecc94236c29a5307d3757d0724d759453c",
      "to": "0xd9c45ad03c29d9b9773bf40db197780f7db4ef0d",
      "contractAddress": null,
      "l1BaseFeeScalar": "0x44d",
      "l1BlobBaseFee": "0x1",
      "l1BlobBaseFeeScalar": "0xa118b",
      "l1Fee": "0xa22c8ba411",
      "l1GasPrice": "0x15b4002961",
      "l1GasUsed": "0x1a82"
    }
  ],
  "libraries": [],
  "pending": [],
  "returns": {},
  "timestamp": 1738917324,
  "chain": 84532,
  "commit": "dd900dd"
}