{
  "transactions": [
    {
      "hash": "0x790c14b3af414c8727eebbb3f25f254917a6a455d9363aa4e188410eb0da11a9",
      "transactionType": "CALL",
      "contractName": null,
      "contractAddress": "0x50139d921e6746c628db7abec73060e8da70afad",
      "function": "castVote(uint256,uint256,uint256[],uint256[])",
      "arguments": [
        "1",
        "0",
        "[1, 0, 2, 0]",
        "[64, 36, 0, 0]"
      ],
      "transaction": {
        "from": "0xadb559583bdb736937228cc3f1453a75262fae18",
        "to": "0x50139d921e6746c628db7abec73060e8da70afad",
        "gas": "0x793e1",
        "value": "0x0",
        "input": "0x3c1a8f6b00000000000000000000000000000000000000000000000000000000000000010000000000000000000000000000000000000000000000000000000000000000000000000000000000000000000000000000000000000000000000000000008000000000000000000000000000000000000000000000000000000000000001200000000000000000000000000000000000000000000000000000000000000004000000000000000000000000000000000000000000000000000000000000000100000000000000000000000000000000000000000000000000000000000000000000000000000000000000000000000000000000000000000000000000000002000000000000000000000000000000000000000000000000000000000000000000000000000000000000000000000000000000000000000000000000000000040000000000000000000000000000000000000000000000000000000000000040000000000000000000000000000000000000000000000000000000000000002400000000000000000000000000000000000000000000000000000000000000000000000000000000000000000000000000000000000000000000000000000000",
        "nonce": "0x2",
        "chainId": "0x14a34"
      },
      "additionalContracts": [],
      "isFixedGasLimit": false
    }
  ],
  "receipts": [
    {
      "status": "0x1",
      "cumulativeGasUsed": "0x1045eac",
      "logs": [
        {
          "address": "0x50139d921e6746c628db7abec73060e8da70afad",
          "topics": [
            "0xa23fc440c6fc2e19ce408adc0b47622097fa7ea64409d71d33ba3fcdb5b4cd95",
            "0x000000000000000000000000adb559583bdb736937228cc3f1453a75262fae18",
            "0x0000000000000000000000000000000000000000000000000000000000000001"
          ],
          "data": "0x00000000000000000000000000000000000000000000000000000000000000080000000000000000000000000000000000000000000000000000000000000040",
          "blockHash": "0x2a0d7165b69e82d9cd86551eeafbd92061f0d207d17aa2b6691b0469eccf68c7",
          "blockNumber": "0x14b2363",
          "transactionHash": "0x790c14b3af414c8727eebbb3f25f254917a6a455d9363aa4e188410eb0da11a9",
          "transactionIndex": "0x3b",
          "logIndex": "0x95",
          "removed": false
        },
        {
          "address": "0x50139d921e6746c628db7abec73060e8da70afad",
          "topics": [
            "0xa23fc440c6fc2e19ce408adc0b47622097fa7ea64409d71d33ba3fcdb5b4cd95",
            "0x000000000000000000000000adb559583bdb736937228cc3f1453a75262fae18",
            "0x0000000000000000000000000000000000000000000000000000000000000000"
          ],
          "data": "0x00000000000000000000000000000000000000000000000000000000000000060000000000000000000000000000000000000000000000000000000000000024",
          "blockHash": "0x2a0d7165b69e82d9cd86551eeafbd92061f0d207d17aa2b6691b0469eccf68c7",
          "blockNumber": "0x14b2363",
          "transactionHash": "0x790c14b3af414c8727eebbb3f25f254917a6a455d9363aa4e188410eb0da11a9",
          "transactionIndex": "0x3b",
          "logIndex": "0x96",
          "removed": false
        },
        {
          "address": "0x50139d921e6746c628db7abec73060e8da70afad",
          "topics": [
            "0xa23fc440c6fc2e19ce408adc0b47622097fa7ea64409d71d33ba3fcdb5b4cd95",
            "0x000000000000000000000000adb559583bdb736937228cc3f1453a75262fae18",
            "0x0000000000000000000000000000000000000000000000000000000000000002"
          ],
          "data": "0x00000000000000000000000000000000000000000000000000000000000000000000000000000000000000000000000000000000000000000000000000000000",
          "blockHash": "0x2a0d7165b69e82d9cd86551eeafbd92061f0d207d17aa2b6691b0469eccf68c7",
          "blockNumber": "0x14b2363",
          "transactionHash": "0x790c14b3af414c8727eebbb3f25f254917a6a455d9363aa4e188410eb0da11a9",
          "transactionIndex": "0x3b",
          "logIndex": "0x97",
          "removed": false
        },
        {
          "address": "0x50139d921e6746c628db7abec73060e8da70afad",
          "topics": [
            "0xa23fc440c6fc2e19ce408adc0b47622097fa7ea64409d71d33ba3fcdb5b4cd95",
            "0x000000000000000000000000adb559583bdb736937228cc3f1453a75262fae18",
            "0x0000000000000000000000000000000000000000000000000000000000000000"
          ],
          "data": "0x00000000000000000000000000000000000000000000000000000000000000000000000000000000000000000000000000000000000000000000000000000000",
          "blockHash": "0x2a0d7165b69e82d9cd86551eeafbd92061f0d207d17aa2b6691b0469eccf68c7",
          "blockNumber": "0x14b2363",
          "transactionHash": "0x790c14b3af414c8727eebbb3f25f254917a6a455d9363aa4e188410eb0da11a9",
          "transactionIndex": "0x3b",
          "logIndex": "0x98",
          "removed": false
        }
      ],
      "logsBloom": "0x04000000000000000000000000000000000000100000000000000000000000000000000000000000000000000000000000000000000000000000000000040000000000000000000000000004000000000000000000040000000000000080000000000000020000000000000000000800000000000000000000020000000000003000000000000000000000000000000000000000000000000000000000000000000000000000000000040100000000000000000000000000000000000000000000000000000000000000000000000000000000000000000000000002000060000000000000000000000000000000000000000000408000000000000000000000",
      "type": "0x2",
      "transactionHash": "0x790c14b3af414c8727eebbb3f25f254917a6a455d9363aa4e188410eb0da11a9",
      "transactionIndex": "0x3b",
      "blockHash": "0x2a0d7165b69e82d9cd86551eeafbd92061f0d207d17aa2b6691b0469eccf68c7",
      "blockNumber": "0x14b2363",
      "gasUsed": "0x52e6a",
      "effectiveGasPrice": "0xe5cf0",
      "from": "0xadb559583bdb736937228cc3f1453a75262fae18",
      "to": "0x50139d921e6746c628db7abec73060e8da70afad",
      "contractAddress": null,
      "l1BaseFeeScalar": "0x44d",
      "l1BlobBaseFee": "0x1",
      "l1BlobBaseFeeScalar": "0xa118b",
      "l1Fee": "0x58378e4e1",
      "l1GasPrice": "0x2e04be641",
      "l1GasUsed": "0x6cd"
    }
  ],
  "libraries": [],
  "pending": [],
  "returns": {},
  "timestamp": 1739171239,
  "chain": 84532,
  "commit": "dd900dd"
}