{
  "transactions": [
    {
      "hash": "0x891b45211fe62376b875015b3353da4765efddc41000d71cae43e2a8ca094c29",
      "transactionType": "CALL",
      "contractName": "QVContract",
      "contractAddress": "0x786333fFf4535F1169786d42F7e007abFD85Bd20",
      "function": "createVotingSession(string,string,uint256,uint256,uint256)",
      "arguments": [
        "\"Session 1\"",
        "\"Description 1\"",
        "1734483218",
        "1734484218",
        "100"
      ],
      "transaction": {
        "type": "0x02",
        "from": "0xddb342ecc94236c29a5307d3757d0724d759453c",
        "to": "0x786333fff4535f1169786d42f7e007abfd85bd20",
        "gas": "0x41006",
        "value": "0x0",
        "data": "0xf6e58b9600000000000000000000000000000000000000000000000000000000000000a000000000000000000000000000000000000000000000000000000000000000e00000000000000000000000000000000000000000000000000000000067621d1200000000000000000000000000000000000000000000000000000000676220fa0000000000000000000000000000000000000000000000000000000000000064000000000000000000000000000000000000000000000000000000000000000953657373696f6e20310000000000000000000000000000000000000000000000000000000000000000000000000000000000000000000000000000000000000d4465736372697074696f6e203100000000000000000000000000000000000000",
        "nonce": "0x3",
        "accessList": []
      },
      "additionalContracts": [],
      "isFixedGasLimit": false
    }
  ],
  "receipts": [],
  "libraries": [],
  "pending": [
    "0x891b45211fe62376b875015b3353da4765efddc41000d71cae43e2a8ca094c29"
  ],
  "returns": {},
  "timestamp": 1734482244,
  "chain": 84532,
  "multi": false,
  "commit": "5922de9"
}