{
  "transactions": [
    {
      "hash": "0x231fe1642ed2150f2648d8f890164894e189f9804c013e802e25ea7b1131725e",
      "transactionType": "CALL",
      "contractName": null,
      "contractAddress": "0xd9c45ad03c29d9b9773bf40db197780f7db4ef0d",
      "function": "castVote(uint256,uint256,uint256[],uint256[])",
      "arguments": [
        "1",
        "1",
        "[0, 2, 0, 0]",
        "[40, 60, 0, 0]"
      ],
      "transaction": {
        "from": "0xddb342ecc94236c29a5307d3757d0724d759453c",
        "to": "0xd9c45ad03c29d9b9773bf40db197780f7db4ef0d",
        "gas": "0x76e74",
        "value": "0x0",
        "input": "0x3c1a8f6b00000000000000000000000000000000000000000000000000000000000000010000000000000000000000000000000000000000000000000000000000000001000000000000000000000000000000000000000000000000000000000000008000000000000000000000000000000000000000000000000000000000000001200000000000000000000000000000000000000000000000000000000000000004000000000000000000000000000000000000000000000000000000000000000000000000000000000000000000000000000000000000000000000000000000020000000000000000000000000000000000000000000000000000000000000000000000000000000000000000000000000000000000000000000000000000000000000000000000000000000000000000000000000000000000000000000000040000000000000000000000000000000000000000000000000000000000000028000000000000000000000000000000000000000000000000000000000000003c00000000000000000000000000000000000000000000000000000000000000000000000000000000000000000000000000000000000000000000000000000000",
        "nonce": "0x11",
        "chainId": "0x14a34"
      },
      "additionalContracts": [],
      "isFixedGasLimit": false
    }
  ],
  "receipts": [
    {
      "status": "0x1",
      "cumulativeGasUsed": "0x9e4276",
      "logs": [
        {
          "address": "0xd9c45ad03c29d9b9773bf40db197780f7db4ef0d",
          "topics": [
            "0xa23fc440c6fc2e19ce408adc0b47622097fa7ea64409d71d33ba3fcdb5b4cd95",
            "0x000000000000000000000000ddb342ecc94236c29a5307d3757d0724d759453c",
            "0x0000000000000000000000000000000000000000000000000000000000000000"
          ],
          "data": "0x00000000000000000000000000000000000000000000000000000000000000060000000000000000000000000000000000000000000000000000000000000028",
          "blockHash": "0xca79e7fc349fbeab03d521ae6852d79416eed69245cd0f17fdf2722bdbe0bae6",
          "blockNumber": "0x1493650",
          "transactionHash": "0x231fe1642ed2150f2648d8f890164894e189f9804c013e802e25ea7b1131725e",
          "transactionIndex": "0x3f",
          "logIndex": "0xab",
          "removed": false
        },
        {
          "address": "0xd9c45ad03c29d9b9773bf40db197780f7db4ef0d",
          "topics": [
            "0xa23fc440c6fc2e19ce408adc0b47622097fa7ea64409d71d33ba3fcdb5b4cd95",
            "0x000000000000000000000000ddb342ecc94236c29a5307d3757d0724d759453c",
            "0x0000000000000000000000000000000000000000000000000000000000000002"
          ],
          "data": "0x0000000000000000000000000000000000000000000000000000000000000007000000000000000000000000000000000000000000000000000000000000003c",
          "blockHash": "0xca79e7fc349fbeab03d521ae6852d79416eed69245cd0f17fdf2722bdbe0bae6",
          "blockNumber": "0x1493650",
          "transactionHash": "0x231fe1642ed2150f2648d8f890164894e189f9804c013e802e25ea7b1131725e",
          "transactionIndex": "0x3f",
          "logIndex": "0xac",
          "removed": false
        },
        {
          "address": "0xd9c45ad03c29d9b9773bf40db197780f7db4ef0d",
          "topics": [
            "0xa23fc440c6fc2e19ce408adc0b47622097fa7ea64409d71d33ba3fcdb5b4cd95",
            "0x000000000000000000000000ddb342ecc94236c29a5307d3757d0724d759453c",
            "0x0000000000000000000000000000000000000000000000000000000000000000"
          ],
          "data": "0x00000000000000000000000000000000000000000000000000000000000000000000000000000000000000000000000000000000000000000000000000000000",
          "blockHash": "0xca79e7fc349fbeab03d521ae6852d79416eed69245cd0f17fdf2722bdbe0bae6",
          "blockNumber": "0x1493650",
          "transactionHash": "0x231fe1642ed2150f2648d8f890164894e189f9804c013e802e25ea7b1131725e",
          "transactionIndex": "0x3f",
          "logIndex": "0xad",
          "removed": false
        },
        {
          "address": "0xd9c45ad03c29d9b9773bf40db197780f7db4ef0d",
          "topics": [
            "0xa23fc440c6fc2e19ce408adc0b47622097fa7ea64409d71d33ba3fcdb5b4cd95",
            "0x000000000000000000000000ddb342ecc94236c29a5307d3757d0724d759453c",
            "0x0000000000000000000000000000000000000000000000000000000000000000"
          ],
          "data": "0x00000000000000000000000000000000000000000000000000000000000000000000000000000000000000000000000000000000000000000000000000000000",
          "blockHash": "0xca79e7fc349fbeab03d521ae6852d79416eed69245cd0f17fdf2722bdbe0bae6",
          "blockNumber": "0x1493650",
          "transactionHash": "0x231fe1642ed2150f2648d8f890164894e189f9804c013e802e25ea7b1131725e",
          "transactionIndex": "0x3f",
          "logIndex": "0xae",
          "removed": false
        }
      ],
      "logsBloom": "0x04000000000000000000000000000000000000000000000000000000000000000000000000000000000000000000000000000000000000000000000000000000000000000000000000000004000000000000000000000000000000000000000400000000020000000000000000000800400000000000000000000000400000000000000000000000000000000000000000000000000000000000000000800000000000000010000000040100000000000000000000000000000000000000000000000000000000000000000000000000000000000000000000000000000020000000000000000000000400000000000000000000408000000000000000000000",
      "type": "0x2",
      "transactionHash": "0x231fe1642ed2150f2648d8f890164894e189f9804c013e802e25ea7b1131725e",
      "transactionIndex": "0x3f",
      "blockHash": "0xca79e7fc349fbeab03d521ae6852d79416eed69245cd0f17fdf2722bdbe0bae6",
      "blockNumber": "0x1493650",
      "gasUsed": "0x514d3",
      "effectiveGasPrice": "0x18891",
      "from": "0xddb342ecc94236c29a5307d3757d0724d759453c",
      "to": "0xd9c45ad03c29d9b9773bf40db197780f7db4ef0d",
      "contractAddress": null,
      "l1BaseFeeScalar": "0x44d",
      "l1BlobBaseFee": "0x5",
      "l1BlobBaseFeeScalar": "0xa118b",
      "l1Fee": "0x27960f2d98",
      "l1GasPrice": "0x14a672409f",
      "l1GasUsed": "0x6cd"
    }
  ],
  "libraries": [],
  "pending": [],
  "returns": {},
  "timestamp": 1738918785,
  "chain": 84532,
  "commit": "dd900dd"
}