{
  "transactions": [
    {
      "hash": "0x5883f530659de0b238d8c04291335e831c9b273c7ba7cc7b6ed83a4c7a7d9ef9",
      "transactionType": "CALL",
      "contractName": null,
      "contractAddress": "0x50139d921e6746c628db7abec73060e8da70afad",
      "function": "castVote(uint256,uint256,uint256[],uint256[])",
      "arguments": [
        "1",
        "0",
        "[0, 0, 0, 0]",
        "[100, 0, 0, 0]"
      ],
      "transaction": {
        "from": "0x02f6302d1b7c94ff01a2b59ebac8d9aa2fc62522",
        "to": "0x50139d921e6746c628db7abec73060e8da70afad",
        "gas": "0x4df09",
        "value": "0x0",
        "input": "0x3c1a8f6b00000000000000000000000000000000000000000000000000000000000000010000000000000000000000000000000000000000000000000000000000000000000000000000000000000000000000000000000000000000000000000000008000000000000000000000000000000000000000000000000000000000000001200000000000000000000000000000000000000000000000000000000000000004000000000000000000000000000000000000000000000000000000000000000000000000000000000000000000000000000000000000000000000000000000000000000000000000000000000000000000000000000000000000000000000000000000000000000000000000000000000000000000000000000000000000000000000000000000000000000000000000000000000000000000000000000000040000000000000000000000000000000000000000000000000000000000000064000000000000000000000000000000000000000000000000000000000000000000000000000000000000000000000000000000000000000000000000000000000000000000000000000000000000000000000000000000000000000000000000",
        "nonce": "0x5",
        "chainId": "0x14a34"
      },
      "additionalContracts": [],
      "isFixedGasLimit": false
    }
  ],
  "receipts": [
    {
      "status": "0x1",
      "cumulativeGasUsed": "0x57de36",
      "logs": [
        {
          "address": "0x50139d921e6746c628db7abec73060e8da70afad",
          "topics": [
            "0xa23fc440c6fc2e19ce408adc0b47622097fa7ea64409d71d33ba3fcdb5b4cd95",
            "0x00000000000000000000000002f6302d1b7c94ff01a2b59ebac8d9aa2fc62522",
            "0x0000000000000000000000000000000000000000000000000000000000000000"
          ],
          "data": "0x000000000000000000000000000000000000000000000000000000000000000a0000000000000000000000000000000000000000000000000000000000000064",
          "blockHash": "0x2335e36c971aaec3c73093eab37ef704d12b5ef6fdbb08c7678ebfd497bce19f",
          "blockNumber": "0x14b2297",
          "transactionHash": "0x5883f530659de0b238d8c04291335e831c9b273c7ba7cc7b6ed83a4c7a7d9ef9",
          "transactionIndex": "0x2d",
          "logIndex": "0x64",
          "removed": false
        },
        {
          "address": "0x50139d921e6746c628db7abec73060e8da70afad",
          "topics": [
            "0xa23fc440c6fc2e19ce408adc0b47622097fa7ea64409d71d33ba3fcdb5b4cd95",
            "0x00000000000000000000000002f6302d1b7c94ff01a2b59ebac8d9aa2fc62522",
            "0x0000000000000000000000000000000000000000000000000000000000000000"
          ],
          "data": "0x00000000000000000000000000000000000000000000000000000000000000000000000000000000000000000000000000000000000000000000000000000000",
          "blockHash": "0x2335e36c971aaec3c73093eab37ef704d12b5ef6fdbb08c7678ebfd497bce19f",
          "blockNumber": "0x14b2297",
          "transactionHash": "0x5883f530659de0b238d8c04291335e831c9b273c7ba7cc7b6ed83a4c7a7d9ef9",
          "transactionIndex": "0x2d",
          "logIndex": "0x65",
          "removed": false
        },
        {
          "address": "0x50139d921e6746c628db7abec73060e8da70afad",
          "topics": [
            "0xa23fc440c6fc2e19ce408adc0b47622097fa7ea64409d71d33ba3fcdb5b4cd95",
            "0x00000000000000000000000002f6302d1b7c94ff01a2b59ebac8d9aa2fc62522",
            "0x0000000000000000000000000000000000000000000000000000000000000000"
          ],
          "data": "0x00000000000000000000000000000000000000000000000000000000000000000000000000000000000000000000000000000000000000000000000000000000",
          "blockHash": "0x2335e36c971aaec3c73093eab37ef704d12b5ef6fdbb08c7678ebfd497bce19f",
          "blockNumber": "0x14b2297",
          "transactionHash": "0x5883f530659de0b238d8c04291335e831c9b273c7ba7cc7b6ed83a4c7a7d9ef9",
          "transactionIndex": "0x2d",
          "logIndex": "0x66",
          "removed": false
        },
        {
          "address": "0x50139d921e6746c628db7abec73060e8da70afad",
          "topics": [
            "0xa23fc440c6fc2e19ce408adc0b47622097fa7ea64409d71d33ba3fcdb5b4cd95",
            "0x00000000000000000000000002f6302d1b7c94ff01a2b59ebac8d9aa2fc62522",
            "0x0000000000000000000000000000000000000000000000000000000000000000"
          ],
          "data": "0x00000000000000000000000000000000000000000000000000000000000000000000000000000000000000000000000000000000000000000000000000000000",
          "blockHash": "0x2335e36c971aaec3c73093eab37ef704d12b5ef6fdbb08c7678ebfd497bce19f",
          "blockNumber": "0x14b2297",
          "transactionHash": "0x5883f530659de0b238d8c04291335e831c9b273c7ba7cc7b6ed83a4c7a7d9ef9",
          "transactionIndex": "0x2d",
          "logIndex": "0x67",
          "removed": false
        }
      ],
      "logsBloom": "0x00000000000000000000000000000000000000000000000000000000000000000000000000000000000000000000000000000000000000000000000000000000000000000000000000000004000000000000000000000000000000000080000000000000020000000000000000000800000000004000000000000000000000001800000000000000000000000004000000000000000000000000000000000000000000000000000000040000000000000000000000000000000000000000000000000000000000000000000000000000000000000000000000000002000020000000000000000000000000000000000000000000400000000000000000000000",
      "type": "0x2",
      "transactionHash": "0x5883f530659de0b238d8c04291335e831c9b273c7ba7cc7b6ed83a4c7a7d9ef9",
      "transactionIndex": "0x2d",
      "blockHash": "0x2335e36c971aaec3c73093eab37ef704d12b5ef6fdbb08c7678ebfd497bce19f",
      "blockNumber": "0x14b2297",
      "gasUsed": "0x386d5",
      "effectiveGasPrice": "0x9f799",
      "from": "0x02f6302d1b7c94ff01a2b59ebac8d9aa2fc62522",
      "to": "0x50139d921e6746c628db7abec73060e8da70afad",
      "contractAddress": null,
      "l1BaseFeeScalar": "0x44d",
      "l1BlobBaseFee": "0x1",
      "l1BlobBaseFeeScalar": "0xa118b",
      "l1Fee": "0x3868c8fe8",
      "l1GasPrice": "0x20058a09a",
      "l1GasUsed": "0x640"
    }
  ],
  "libraries": [],
  "pending": [],
  "returns": {},
  "timestamp": 1739170831,
  "chain": 84532,
  "commit": "dd900dd"
}