{
  "transactions": [
    {
      "hash": "0x9404bcb8400600648f933dea1e9a3419001852ddc2c1b195afe37ef8f87c729d",
      "transactionType": "CALL",
      "contractName": null,
      "contractAddress": "0xd2c853dB14E2060F8a554388851437c19C35dfD2",
      "function": "createVotingSession(string,string,uint256,uint256,uint256)",
      "arguments": [
        "\"Session 1\"",
        "\"Description 1\"",
        "1734482608",
        "1734483608",
        "100"
      ],
      "transaction": {
        "type": "0x02",
        "from": "0xddb342ecc94236c29a5307d3757d0724d759453c",
        "to": "0xd2c853db14e2060f8a554388851437c19c35dfd2",
        "gas": "0x41006",
        "value": "0x0",
        "data": "0xf6e58b9600000000000000000000000000000000000000000000000000000000000000a000000000000000000000000000000000000000000000000000000000000000e00000000000000000000000000000000000000000000000000000000067621ab00000000000000000000000000000000000000000000000000000000067621e980000000000000000000000000000000000000000000000000000000000000064000000000000000000000000000000000000000000000000000000000000000953657373696f6e20310000000000000000000000000000000000000000000000000000000000000000000000000000000000000000000000000000000000000d4465736372697074696f6e203100000000000000000000000000000000000000",
        "nonce": "0x437",
        "accessList": []
      },
      "additionalContracts": [],
      "isFixedGasLimit": false
    }
  ],
  "receipts": [],
  "libraries": [],
  "pending": [
    "0x9404bcb8400600648f933dea1e9a3419001852ddc2c1b195afe37ef8f87c729d"
  ],
  "returns": {},
  "timestamp": 1734481643,
  "chain": 11155111,
  "multi": false,
  "commit": "5922de9"
}