{
  "transactions": [
    {
      "hash": "0x9404bcb8400600648f933dea1e9a3419001852ddc2c1b195afe37ef8f87c729d",
      "transactionType": "CALL",
      "contractName": null,
      "contractAddress": "0xd2c853dB14E2060F8a554388851437c19C35dfD2",
      "function": "createVotingSession(string,string,uint256,uint256,uint256)",
      "arguments": [
        "\"Session 1\"",
        "\"Description 1\"",
        "1734482608",
        "1734483608",
        "100"
      ],
      "transaction": {
        "type": "0x02",
        "from": "0xddb342ecc94236c29a5307d3757d0724d759453c",
        "to": "0xd2c853db14e2060f8a554388851437c19c35dfd2",
        "gas": "0x41006",
        "value": "0x0",
        "data": "0xf6e58b9600000000000000000000000000000000000000000000000000000000000000a000000000000000000000000000000000000000000000000000000000000000e00000000000000000000000000000000000000000000000000000000067621ab00000000000000000000000000000000000000000000000000000000067621e980000000000000000000000000000000000000000000000000000000000000064000000000000000000000000000000000000000000000000000000000000000953657373696f6e20310000000000000000000000000000000000000000000000000000000000000000000000000000000000000000000000000000000000000d4465736372697074696f6e203100000000000000000000000000000000000000",
        "nonce": "0x437",
        "accessList": []
      },
      "additionalContracts": [],
      "isFixedGasLimit": false
    }
  ],
  "receipts": [
    {
      "transactionHash": "0x9404bcb8400600648f933dea1e9a3419001852ddc2c1b195afe37ef8f87c729d",
      "transactionIndex": "0x0",
      "blockHash": "0xebaf427506343b137eeb01d110fd4641c3d58e0fc7db003e7e1c9fb5f1e76315",
      "blockNumber": "0x6f6794",
      "from": "0xDdb342ecc94236c29a5307d3757d0724D759453C",
      "to": "0xd2c853dB14E2060F8a554388851437c19C35dfD2",
      "cumulativeGasUsed": "0x2c721",
      "gasUsed": "0x2c721",
      "contractAddress": null,
      "logs": [
        {
          "address": "0xd2c853dB14E2060F8a554388851437c19C35dfD2",
          "topics": [
            "0x0f40fee1a48c231d63cdb810402c13105b64f25877e9018ec9c26d862be056cc",
            "0x0000000000000000000000000000000000000000000000000000000000000000"
          ],
          "data": "0x0000000000000000000000000000000000000000000000000000000000000040000000000000000000000000ddb342ecc94236c29a5307d3757d0724d759453c000000000000000000000000000000000000000000000000000000000000000953657373696f6e20310000000000000000000000000000000000000000000000",
          "blockHash": "0xebaf427506343b137eeb01d110fd4641c3d58e0fc7db003e7e1c9fb5f1e76315",
          "blockNumber": "0x6f6794",
          "transactionHash": "0x9404bcb8400600648f933dea1e9a3419001852ddc2c1b195afe37ef8f87c729d",
          "transactionIndex": "0x0",
          "logIndex": "0x0",
          "removed": false
        }
      ],
      "status": "0x1",
      "logsBloom": "0x00000000000000000000000010000100000000000000000000040000000000000000000000000000000000000000000000000000000000000000000000000000000000000000000000000000000000000000000000000000000000000000000000000000020000000000000000000800000000000000000000000000000000000000001000000000000000000000000000000000000000000000000000000000000000000000000000000000000000000000000000000000000000000000000000000000000000000000000000000020000000000000000000000000000020000000000000000000000000000000000000800000000000000000000000000000",
      "type": "0x2",
      "effectiveGasPrice": "0x2f0f7b2d3"
    }
  ],
  "libraries": [],
  "pending": [],
  "returns": {},
  "timestamp": 1734481657,
  "chain": 11155111,
  "multi": false,
  "commit": "5922de9"
}